:020000040800F2
:10000000100A00204102000835340008ED2F0008D6
:10001000313400082D06000851400008000000009F
:10002000000000000000000000000000F93500089A
:10003000A107000800000000A93400087536000878
:100040005B0200085B0200085B0200085B0200081C
:100050005B0200085B0200085B0200085B0200080C
:100060005B0200085B0200085B0200085B020008FC
:100070005B0200085B0200085B0200085B020008EC
:10008000310600085B0200085B0200080000000067
:100090000000000000000000000000005B020008FB
:1000A0005B020008553700085B0200085B0200088D
:1000B0006537000875370008853700085B020008BF
:1000C0005B0200085B0200085B0200085B0200089C
:1000D0005B0200085B0200085B02000800000000F1
:1000E0005B0200085B0200085B02000800000000E1
:1000F0000000000000000000000000005B0200089B
:10010000000000005B0200085B0200085B020008C0
:1001100000000000000000000000000000000000DF
:100120005B0200085B020008410600085B02000851
:100130005B0200080000000000000000000000005A
:100140000000000000000000000000005B0200084A
:100150005B0200085B0200085B0200085B0200080B
:100160005B0200085B0200080000000000000000C5
:10017000000000000000000000000000000000007F
:10018000000000005B02000800000000000000000A
:100190005B02000800F002F800F040F80AA090E8C6
:1001A000000C82448344AAF10107DA4501D100F032
:1001B00035F8AFF2090EBAE80F0013F0010F18BFBF
:1001C000FB1A43F001031847484100006841000052
:1001D000103A24BF78C878C1FAD8520724BF30C873
:1001E00030C144BF04680C60704700000023002445
:1001F00000250026103A28BF78C1FBD8520728BF37
:1002000030C148BF0B6070471FB504F064F80FBCE5
:1002100000F014F80FB41FBD10B510BD00F0D2F8F7
:100220001146FFF7F1FF03F0CBFF00F0F0F803B445
:10023000FFF7F2FF03BC00F0FDF8000000F032B958
:100240000948804709480047FEE7FEE7FEE7FEE76A
:10025000FEE7FEE7FEE7FEE7FEE7FEE704480549A6
:10026000054A064B70470000413700089501000819
:1002700010040020100A00201006002010060020A4
:1002800053EA020C00F069802DE9F04B4FF00006B4
:10029000002B1FBFB3FA83F503FA05F424FA05F621
:1002A0005E4012BF1643B2FA82F502FA05F4C5F1B8
:1002B00020051EBF22FA05FC44EA0C04203556EA4C
:1002C000044C4FEA144418BF641C4FF000084FF070
:1002D0000009904271EB030C39D3002919BFB1FA20
:1002E00081F701FA07F6B0FA80F700FA07F6C7F1CE
:1002F00020071EBF20FA07FC46EA0C062037B6FB93
:10030000F4FCA7EB0507103F07F01F0BCBF120060D
:100310002CFA06F60CFA0BFB44BFB3460026202F3E
:10032000A4BF5E464FF0000B5BEA060C08BF4FF01F
:10033000010B19EB0B0948EB0608ABFB027C06FB33
:1003400002CC0BFB03CCC01B71EB0C01C1E70B46CD
:10035000024641464846BDE8F08B13B5084318BF36
:100360004FF0FF300146AFF30080BDE81C407047FE
:100370004FF0000200B5134694469646203922BF3E
:10038000A0E80C50A0E80C50B1F12001BFF4F7AF89
:10039000090728BFA0E80C5048BF0CC05DF804EB6B
:1003A000890028BF40F8042B08BF704748BF20F8D9
:1003B000022B11F0804F18BF00F8012B70477047D7
:1003C00070477047754600F02BF8AE460500694649
:1003D000534620F00700854618B020B5FFF73EFFD2
:1003E000BDE820404FF000064FF000074FF0000836
:1003F0004FF0000BAC46ACE8C009ACE8C009ACE873
:10040000C009ACE8C00921F007018D46704710B55E
:100410000446AFF300802046BDE81040FFF707BF59
:1004200000487047F0000020002801D000F002B81A
:100430007047000001491820ABBEFEE7260002000D
:1004400070B505460C460A2000E06D1C00F011F85E
:1004500035B128780028F8D102E0641C00F009F8D2
:1004600014B120780028F8D1BDE870400A20AFF31D
:10047000008008B569468DF800000320ABBE08BDBA
:1004800070470246C91C21F00301D2E900031B1A80
:100490008B4201D2002070470144C91D21F00701A1
:1004A000116070472DE9F34F83B000274FF480743B
:1004B000BA4603A821468DF80070FFF7E2FF5FEA15
:1004C000000801D100F0AAF82146404600F070F87B
:1004D000060009D04FF0010B4546C14616F8014B06
:1004E0008FB15C2C16D01CE008F108004146C8F81A
:1004F00000000020C8F80400D8F800402070012057
:1005000005B0BDE8F08F222C01D0272C0FD1274653
:10051000BA462CE03078222807D05C2805D027285E
:1005200003D0BC4203D1002721E0761C04464CB125
:100530002FB9202C06D0A4F10900042802D905F80F
:10054000014BCBE74D4502D1BAF1000F0FD0524617
:100550004946002005F8010B6846AFF300809DF87E
:10056000000070B14D464FF0000A0BF1010B002C5A
:10057000B4D14FEA8B0103A8FFF783FF040002D038
:1005800004E0A946EFE7002000F048F800204246CA
:10059000C4F8008005E012F8011B11B9401C44F8B2
:1005A0002020AA42F7D3002144F820102146A7E7D3
:1005B0001CB50446CDE9000169461520ABBE08B163
:1005C00000201CBD20461CBD7047704710B5012897
:1005D00005D0002103A0FFF733FF012010BD09A1C2
:1005E000F8E7000053494752544D454D3A204F75A6
:1005F00074206F662068656170206D656D6F72791B
:10060000000000003A2048656170206D656D6F72D2
:100610007920636F727275707465640010B5FFF7AE
:10062000D5FFBDE81040FFF7FFBE0000FFE7FEE783
:1006300080B540F2EC10C2F2000000F017F980BD66
:1006400080B540F28C10C2F2000000F00FF980BDBE
:1006500082B001900198007810384AF6AB21CAF6B2
:10066000AA21A0FB010109090091009944F2083276
:10067000C0F60002515C019AD1650099042907D3A4
:10068000FFE701980168042262F30901816506E031
:100690000198016840F2FF3291438165FFE70198BC
:1006A000806D02B07047000086B0059000208DF884
:1006B00013000598806A039005988069002823D16B
:1006C000FFE70398032802901CD80299DFE801F0A5
:1006D000020E0219059890F82F00C007002804D0D8
:1006E000FFE701208DF81300FFE70CE00598C06AD2
:1006F000B0F1C07F04D1FFE701208DF81300FFE7C0
:1007000001E000E0FFE747E005988069B0F5005F91
:1007100026D1FFE70398032801901FD80199DFE84D
:1007200001F00206021201208DF8130017E005986F
:1007300090F82F00C007002804D0FFE701208DF8B3
:100740001300FFE70BE00598C06AB0F1C07F04D149
:10075000FFE701208DF81300FFE700E0FFE71AE054
:1007600003980328009004D3FFE70098032804D0DF
:100770000FE001208DF813000CE0059890F82F0091
:10078000C007002804D0FFE701208DF81300FFE721
:1007900000E0FFE7FFE7FFE79DF8130006B07047B2
:1007A000704700002DE9F0418CB0DDF850C0DDF855
:1007B0004CE0129C1D4616460F4680468DF82F00D1
:1007C0008DF82E10ADF82C208DF82B308DF82AE006
:1007D0008DF829C0002009900890079006909DF898
:1007E0002F008DF81800FD208DF819009DF82E00BF
:1007F0008DF81A009DF82D008DF81B009DF82C0037
:100800008DF81C009DF82B008DF81D009DF84B0005
:100810008DF81E00BDF84A008DF81F001298000ADE
:100820008DF8200012988DF821009DF82A0000F024
:1008300001008DF822009DF8290000F001008DF8DC
:1008400023006B208DF8240006A80D210594049543
:1008500003960297CDF8048003F014FD0CB0BDE8B8
:10086000F081000072B6FFE7FEE7000080B586B0B9
:1008700005900020039040F20000C2F200000068E2
:1008800048F2B511C1F64E31A0FB0101890A02916F
:100890000599896D01910199096804910499059A56
:1008A000D26DD140090700291BD5FFE705980068E4
:1008B00000684007002813D5FFE705980068016825
:1008C00021F0040101600598C06D082101FA00F0D3
:1008D000019988600598416D41F001014165FFE78C
:1008E000FFE704980599C96DC840C007002815D0D6
:1008F000FFE7059800684069000600280DD5FFE76E
:100900000598C06D012101FA00F0019988600598F1
:10091000416D41F002014165FFE7FFE70498059949
:10092000C96DC8404007002815D5FFE70598006845
:100930000068800700280DD5FFE70598C06D0421E9
:1009400001FA00F0019988600598416D41F00401B9
:100950004165FFE7FFE704980599C96DC840C006E7
:1009600000284BD5FFE705980068006800070028BD
:1009700043D5FFE70598C06D102101FA00F00199F9
:100980008860059800680068400300281CD5FFE7D0
:10099000059800680068000300280AD4FFE705985E
:1009A000006C002804D0FFE70598016C8847FFE73A
:1009B00009E00598806C002804D0FFE70598816C59
:1009C0008847FFE7FFE717E0059800680068C00563
:1009D000002807D4FFE705980068016821F00801A6
:1009E0000160FFE70598006C002804D0FFE7059838
:1009F000016C8847FFE7FFE7FFE7FFE704980599E9
:100A0000C96DC8408006002840F19580FFE7059831
:100A100000680068C006002840F18C80FFE7059858
:100A2000C06D202101FA00F001998860059890F8C6
:100A30003500052838D1FFE705980068016821F0E6
:100A40001601016005980068416921F0800141614B
:100A50000598006C002805D1FFE70598806C0028F8
:100A600007D0FFE705980068016821F008010160E0
:100A7000FFE70598C06D3F2101FA00F001998860F9
:100A80000598012180F83510FFE70598002180F8CE
:100A90003410FFE70598006D002804D0FFE70598A3
:100AA000016D8847FFE781E0059800680068400312
:100AB00000281CD5FFE7059800680068000300289F
:100AC0000AD4FFE70598406C002804D0FFE705989A
:100AD000416C8847FFE709E00598C06B002804D007
:100AE000FFE70598C16B8847FFE7FFE721E005981E
:100AF00000680068C005002811D4FFE70598006869
:100B0000016821F0100101600598012180F835107D
:100B1000FFE70598002180F83410FFE7FFE705980C
:100B2000C06B002804D0FFE70598C16B8847FFE73A
:100B3000FFE7FFE7FFE70598406D002836D0FFE7A5
:100B40000598406DC007002826D0FFE705980521CD
:100B500080F8351005980068016821F001010160F6
:100B6000FFE70398013003900299884201D9FFE71B
:100B700007E0FFE7059800680068C0070028F0D18B
:100B8000FFE70598012180F83510FFE7059800215F
:100B900080F83410FFE7FFE70598C06C002804D008
:100BA000FFE70598C16C8847FFE7FFE706B080BD07
:100BB00080B586B004900020039000F087FA029080
:100BC0000498002804D1FFE701208DF81700A7E062
:100BD0000498406A002801D0FFE7FFE7049802214B
:100BE00080F83510FFE70498002180F83410FFE703
:100BF00004980068016821F001010160FFE7049892
:100C000000680068C007002812D0FFE700F05EFA15
:100C10000299401A06280AD3FFE70498202141656B
:100C20000498032180F835108DF8171078E0E6E776
:100C30000498006800680390039848F23F01CFF2DF
:100C4000100108400390049841688268C368D0F896
:100C500010C01143194341EA0C01426911438269F2
:100C60001143C2691143006A084303990843039082
:100C70000498406A042808D1FFE70498C16A006B11
:100C80000843039908430390FFE703980499096810
:100C900008600498006840690390039820F00700FA
:100CA00003900498406A0399084303900498406AAB
:100CB00004281CD1FFE70498806A03990843039035
:100CC0000498C06A002811D0FFE70498FFF7ECFCF5
:100CD00000280AD0FFE704984021416504980121CB
:100CE00080F835108DF817101AE0FFE7FFE703983A
:100CF0000499096848610498FFF7AAFC01900498D8
:100D0000C06D3F2101FA00F001998860049800212C
:100D100041650498012280F835208DF81710FFE70F
:100D20009DF8170006B080BD8BB00A900991002095
:100D30000790069005900890FFE708980F2800F2AA
:100D4000A881FFE70898012101FA00F007900998AF
:100D5000006807990840069006980799884240F075
:100D60009381FFE70998406800F00300012807D04D
:100D7000FFE70998406800F0030002282FD1FFE741
:100D80000A988068059008984000032101FA00F055
:100D9000059921EA000005900998C0680899490062
:100DA000884005990843059005980A9988600A9833
:100DB000406805900898012101FA00F0059921EAA0
:100DC0000000059009984068C0F300100899884019
:100DD00005990843059005980A994860FFE7099826
:100DE000406800F00300032818D0FFE70A98C068A5
:100DF000059008984000032101FA00F0059921EAC6
:100E00000000059009988068089949008840059974
:100E10000843059005980A99C860FFE7099840685B
:100E200000F00300022826D1FFE70A9808996FF026
:100E3000030202EA51010844006A0590089800F094
:100E4000070080000F2101FA00F0059921EA000057
:100E5000059009980069089901F007018900884008
:100E600005990843059005980A99089B02EA5302E0
:100E700011440862FFE70A9800680590089840004E
:100E8000032101FA00F0059921EA00000590099874
:100E9000406800F00300089949008840059908431C
:100EA000059005980A9908600998807980070028BC
:100EB00000F0E980FFE7FFE70020049043F64400DC
:100EC000C4F20200016841F480410160006800F44E
:100ED000804004900498FFE7089820F0030043F650
:100EE0000801C4F2010140580590089800F0030081
:100EF00080000F2101FA00F0059921EA0000059019
:100F00000A980021C4F20201884203D1FFE70020C1
:100F1000039034E00A9840F20041C4F20201884292
:100F200003D1FFE70120029026E00A9840F6000175
:100F3000C4F20201884203D1FFE70220019018E0C9
:100F40000A9840F60041C4F20201884203D1FFE74B
:100F5000032000900AE00A9841F20001C4F2020165
:100F60000722884208BF04220092FFE70098019000
:100F7000FFE701980290FFE702980390FFE70398CC
:100F8000C0B2089901F0030189008840059908431F
:100F900005900598089921F0030143F60802C4F270
:100FA0000102885043F60840C4F201000068059031
:100FB0000698059921EA0000059009988079C006F5
:100FC000002805D5FFE70698059908430590FFE737
:100FD000059843F60841C4F20101086043F60C404D
:100FE000C4F20100006805900698059921EA000006
:100FF0000590099880798006002805D5FFE70698B6
:10100000059908430590FFE7059843F60C41C4F2A3
:101010000101086043F60440C4F201000068059035
:101020000698059921EA00000590099880798007C3
:10103000002805D5FFE70698059908430590FFE7C6
:10104000059843F60441C4F20101086043F60040EC
:10105000C4F20100006805900698059921EA000095
:10106000059009988079C007002805D0FFE7069809
:10107000059908430590FFE7059843F60041C4F23F
:1010800001010860FFE7FFE7FFE7089801300890DB
:1010900053E60BB07047000082B013468C460190B7
:1010A000ADF802108DF801209DF80100002805D050
:1010B000FFE7BDF802000199886105E0BDF8020074
:1010C000000401998861FFE702B0704740F20840D0
:1010D000C2F200000068704740F2E500C2F2000072
:1010E000007840F20841C2F200010A68104408602A
:1010F0007047000080B582B043F60040C4F20200A1
:10110000016841F400710160016841F4806101608F
:10111000016841F480710160032000F095F80F2010
:1011200000F006F8019000F03DF8002002B080BD0C
:1011300080B582B0009040F20000C2F2000000686A
:1011400040F2E501C2F2000109784FF47A72B2FB75
:10115000F1F1B0FBF1F000F0B5FD002804D0FFE79D
:1011600001208DF8070018E000980F280DD8FFE740
:1011700000994FF0FF30002200F046F8009840F24E
:10118000E801C2F20001086003E001208DF80700C9
:1011900003E000208DF80700FFE79DF8070002B08C
:1011A00080BD000082B0FFE70020019043F64400BC
:1011B000C4F20200016841F480410160006800F45B
:1011C000804001900198FFE7FFE70020009043F680
:1011D0004000C4F20200016841F0805101600068E3
:1011E00000F0805000900098FFE702B070470000C8
:1011F00080B582B001468DF807009DF90700009187
:1012000002F028FF02B080BD80B588B003468DF89B
:101210001F000691059200200490039302F034FF12
:1012200004909DF91F000499069A059B02900846B8
:1012300011461A4602F000F90299019008460199F8
:1012400002F02AFF08B080BD80B582B001900198FD
:1012500002F044FF02B080BD80B584B002900191DD
:101260000298002804D1FFE701208DF80F0021E14A
:10127000019843F60041C4F20201096801F0070138
:10128000884212D9FFE7019843F60041C4F20201F7
:101290000870086800F007000199884204D0FFE751
:1012A00001208DF80F0005E1FFE702980078800724
:1012B00000282AD5FFE7029800784007002809D5C2
:1012C000FFE743F60800C4F20200016841F4E05170
:1012D0000160FFE7029800780007002809D5FFE7C2
:1012E00043F60800C4F20200016841F46041016065
:1012F000FFE743F60800C4F20200016821F0F001A4
:10130000029A926811430160FFE702980078C007D3
:1013100000286ED0FFE702984068012811D1FFE74E
:1013200043F60000C4F20200006800F4003000211F
:10133000B1EB504F04D1FFE701208DF80F00B9E069
:101340002CE002984068022805D0FFE70298406828
:10135000032811D1FFE743F60000C4F20200006841
:1013600000F000700021B1EB506F04D1FFE70120C5
:101370008DF80F009EE010E043F60000C4F202007A
:10138000006800F002000021B1EB500F04D1FFE72C
:1013900001208DF80F008DE0FFE7FFE743F608001E
:1013A000C4F20200016821F00301029A526811435D
:1013B0000160FFF78BFE0090FFE743F60800C4F2E0
:1013C0000200006800F00C0002994968B0EB810F40
:1013D0000ED0FFE7FFF77AFE0099401A41F28931FB
:1013E000884204D3FFE703208DF80F0062E0E4E7B2
:1013F000FFE7019843F60041C4F20201096801F0D9
:101400000701884212D2FFE7019843F60041C4F277
:1014100002010870086800F007000199884204D0B2
:10142000FFE701208DF80F0044E0FFE70298007805
:10143000400700280CD5FFE743F60800C4F202007D
:10144000016821F4E051029AD26811430160FFE77C
:1014500002980078000700280DD5FFE743F6080042
:10146000C4F20200016821F46041029A126941EA63
:10147000C2010160FFE700F04BF843F60801C4F237
:1014800002010968C9B2090944F2F022C0F600025B
:10149000515CC84040F20001C2F20001086040F215
:1014A000E800C2F200000068FFF742FE00218DF85C
:1014B0000F10FFE79DF80F0004B080BD40F2000060
:1014C000C2F200000068704780B5FFF7F7FF43F6EF
:1014D0000801C4F202010968C1F3822144F200321A
:1014E000C0F60002515CC84080BD000080B5FFF727
:1014F000E5FF43F60801C4F20201096889B2490B0D
:1015000044F20032C0F60002515CC84080BD0000C9
:1015100080B586B00020059004900390029043F6B9
:101520000800C4F20200006800F00C000146002828
:10153000019108D0FFE7019804280AD0FFE701983D
:1015400008280CD04FE042F20040C0F2F4000290B4
:101550004FE047F64000C0F27D10029049E043F6AC
:101560000400C4F20200016801F03F010591006827
:101570004002002813D5FFE743F60400C4F202003E
:101580000068C0F3881047F64001C0F27D11A0FB4F
:101590000101059A0023FEF773FE049012E043F662
:1015A0000400C4F202000068C0F3881042F2004157
:1015B000C0F2F401A0FB0101059A0023FEF760FED2
:1015C0000490FFE743F60400C4F20200006800F450
:1015D0004030022101EBD030039004980399B0FB16
:1015E000F1F0029005E042F20040C0F2F4000290F7
:1015F000FFE7029806B080BD80B586B004900498DD
:10160000002804D1FFE701208DF8170055E3049866
:101610000078C007002800F0A780FFE743F6080025
:10162000C4F20200006800F00C00042813D0FFE7A9
:1016300043F60800C4F20200006800F00C0008281D
:101640001FD1FFE743F60400C4F202000068400225
:10165000002816D5FFE743F60000C4F20200006838
:1016600000F400300021B1EB504F09D0FFE704989F
:101670004068002804D1FFE701208DF817001CE323
:1016800071E0FFE704984068B0F5803F09D1FFE7BB
:1016900043F60000C4F20200016841F480310160A9
:1016A00020E004984068B0F5A02F0DD1FFE743F685
:1016B0000000C4F20200016841F480210160016869
:1016C00041F4803101600CE043F60000C4F20200F6
:1016D000016821F480310160016821F480210160FA
:1016E000FFE7FFE7FFE70498406800281DD0FFE709
:1016F000FFF7ECFC0390FFE743F60000C4F20200A2
:10170000006800F400300021B1EB504F0CD1FFE72E
:10171000FFF7DCFC0399401A652804D3FFE7032098
:101720008DF81700C9E2E7E71CE0FFF7CFFC039054
:10173000FFE743F60000C4F20200006800F4003046
:101740000021B1EB504F0CD0FFE7FFF7BFFC03992E
:10175000401A652804D3FFE703208DF81700ACE298
:10176000E7E7FFE7FFE7FFE7049800788007002836
:1017700040F19780FFE743F60800C4F202000068DA
:1017800010F00C0F13D0FFE743F60800C4F202007C
:10179000006800F00C0008282CD1FFE743F6040095
:1017A000C4F2020000684002002823D4FFE743F699
:1017B0000000C4F20200006800F002000021B1EB5A
:1017C000500F09D0FFE70498C068012804D0FFE754
:1017D00001208DF8170070E243F60000C4F2020009
:1017E000016821F0F801049A126941EAC20101601E
:1017F000FFE755E00498C06800282ED0FFE70020DE
:10180000C4F2472001210160FFF760FC0390FFE76D
:1018100043F60000C4F20200006800F0020000215C
:10182000B1EB500F0CD1FFE7FFF750FC0399401AC2
:10183000032804D3FFE703208DF817003DE2E7E714
:1018400043F60000C4F20200016821F0F801049A96
:10185000126941EAC201016021E00020C4F2472080
:1018600000210160FFF732FC0390FFE743F6000020
:10187000C4F20200006800F002000021B1EB500F3A
:101880000CD0FFE7FFF722FC0399401A032804D38A
:10189000FFE703208DF817000FE2E7E7FFE7FFE718
:1018A000FFE704980078000700284CD5FFE704986C
:1018B0004069002823D0FFE740F68060C4F247204B
:1018C00001210160FFF702FC0390FFE743F674007B
:1018D000C4F20200006800F002000021B1EB500FDA
:1018E0000CD1FFE7FFF7F2FB0399401A032804D35A
:1018F000FFE703208DF81700DFE1E7E722E040F67D
:101900008060C4F2472000210160FFF7DFFB0390F5
:10191000FFE743F67400C4F20200006800F0020022
:101920000021B1EB500F0CD0FFE7FFF7CFFB03997D
:10193000401A032804D3FFE703208DF81700BCE109
:10194000E7E7FFE7FFE7049800784007002840F149
:10195000CF80FFE700208DF8070043F64000C4F277
:1019600002000068C000002815D4FFE7FFE7002050
:10197000009043F64000C4F20200016841F080513B
:101980000160006800F0805000900098FFE701209F
:101990008DF80700FFE747F20000C4F2000000687E
:1019A000C005002822D4FFE747F20000C4F200007F
:1019B000016841F480710160FFF788FB0390FFE745
:1019C00047F20000C4F200000068C00500280CD4F3
:1019D000FFE7FFF77BFB0399401A032804D3FFE7D7
:1019E00003208DF8170068E1EAE7FFE7FFE70498B6
:1019F0008068012809D1FFE743F67000C4F20200B5
:101A0000016841F0010101601FE004988068052829
:101A10000DD1FFE743F67000C4F20200016841F007
:101A200004010160016841F0010101600CE043F62E
:101A30007000C4F20200016821F001010160016838
:101A400021F004010160FFE7FFE7FFE704988068E9
:101A500000281FD0FFE7FFF739FB0390FFE743F6AD
:101A60007000C4F20200006800F002000021B1EB37
:101A7000500F0ED1FFE7FFF729FB0399401A41F2FF
:101A80008931884204D3FFE703208DF8170014E161
:101A9000E5E71EE0FFF71AFB0390FFE743F670004F
:101AA000C4F20200006800F002000021B1EB500F08
:101AB0000ED0FFE7FFF70AFB0399401A41F2893184
:101AC000884204D3FFE703208DF81700F5E0E5E72F
:101AD000FFE79DF80700012809D1FFE743F6400022
:101AE000C4F20200016821F080510160FFE7FFE7C6
:101AF00004988069002800F0DC80FFE743F60800C6
:101B0000C4F20200006800F00C00082800F0858094
:101B1000FFE70498806902285CD1FFE76020C4F2E7
:101B2000472000210160FFF7D1FA0390FFE743F659
:101B30000000C4F20200006800F000700021B1EB68
:101B4000506F0CD0FFE7FFF7C1FA0399401A032842
:101B500004D3FFE703208DF81700AEE0E7E7049811
:101B6000C169026A436AD0F828C0114341EA83116F
:101B70004FEACC324FF6FF739A43A2F580321143FD
:101B8000C06A41EA006043F60401C4F20201086041
:101B90006020C4F2472001210160FFF797FA03900B
:101BA000FFE743F60000C4F20200006800F0007096
:101BB0000021B1EB506F0CD1FFE7FFF787FA0399D3
:101BC000401A032804D3FFE703208DF8170074E0C0
:101BD000E7E721E06020C4F2472000210160FFF721
:101BE00075FA0390FFE743F60000C4F202000068B4
:101BF00000F000700021B1EB506F0CD0FFE7FFF751
:101C000065FA0399401A032804D3FFE703208DF8EF
:101C1000170052E0E7E7FFE74AE0049880690128EF
:101C200004D1FFE701208DF8170046E043F60400D9
:101C3000C4F202000068029004988069012831D043
:101C4000FFE7029800F480000499C969884229D10D
:101C5000FFE7029800F03F000499096A884221D109
:101C6000FFE7029847F6C07108400499496AB0EB53
:101C7000811F17D1FFE7029800F440300499896A68
:101C8000C9034FF6FF729143A1F58031884209D113
:101C9000FFE7029800F070600499C96AB0EB016F29
:101CA00004D0FFE701208DF8170006E0FFE7FFE70B
:101CB000FFE700208DF81700FFE79DF8170006B03A
:101CC00080BD000080B582B00190019801F0A8FCB1
:101CD00002B080BD81B0009001B0704781B000902B
:101CE00001B0704785B003900291FFE7039890F828
:101CF0003C00012804D1FFE702208DF813006CE0BE
:101D00000398012180F83C10FFE7FFE703980221C8
:101D100080F83D10039800684068019003980068BF
:101D200080680090019820F070000190029800688F
:101D30000199084301900198039909684860039844
:101D400000680021C4F2010188422AD0FFE703980D
:101D50000068B0F1804F24D0FFE70398006840F29C
:101D60000041C4F2000188421BD0FFE703980068DD
:101D700040F60001C4F20001884212D0FFE7039848
:101D8000006840F60041C4F20001884209D0FFE734
:101D90000398006844F20001C4F2010188420ED1A8
:101DA000FFE7009820F080000090029840680099BA
:101DB000084300900098039909688860FFE703983A
:101DC000012180F83D10FFE70398002180F83C10C6
:101DD000FFE700208DF81300FFE79DF8130005B022
:101DE0007047000080B584B002900298002804D1AA
:101DF000FFE701208DF80F0043E0029890F83D00C6
:101E0000002808D1FFE70298002180F83C100298D2
:101E100000F03CF8FFE70298022180F83D1002989C
:101E200050F8041B01900846019901F0B3FC029898
:101E3000012180F84610FFE70298012180F83E104A
:101E4000029880F83F10029880F84010029880F8BD
:101E50004110FFE7FFE70298012180F84210029845
:101E600080F84310029880F84410029880F84510DA
:101E7000FFE70298012180F83D1000208DF80F0047
:101E8000FFE79DF80F0004B080BD000080B58CB066
:101E90000B900B9800680021C4F2010188421BD10D
:101EA000FFE7FFE700200A9043F64400C4F2020077
:101EB000016841F001010160006800F001000A9032
:101EC0000A98FFE71920012100220690FFF79CF9EC
:101ED0000698FFF78DF96EE00B980068B0F1804F1F
:101EE0001CD1FFE7FFE70020099043F64000C4F251
:101EF0000200016841F001010160006800F001008A
:101F000009900998FFE71C20002105900491049A8C
:101F1000FFF77AF90598FFF76BF94BE00B9800682B
:101F200040F20041C4F2000188421CD1FFE7FFE704
:101F30000020089043F64000C4F20200016841F01E
:101F400002010160006800F0020008900898FFE7B5
:101F50001D20002103900291029AFFF755F9039882
:101F6000FFF746F925E00B98006840F60001C4F23F
:101F7000000188421CD1FFE7FFE70020079043F6ED
:101F80004000C4F20200016841F0040101600068F1
:101F900000F0040007900798FFE71E200021019041
:101FA0000091009AFFF730F90198FFF721F9FFE758
:101FB000FFE7FFE7FFE70CB080BD000083B00190B2
:101FC000019890F83D00012804D0FFE701208DF82A
:101FD0000B0052E00198022180F83D100198006842
:101FE0000021C4F2010188422AD0FFE7019800686D
:101FF000B0F1804F24D0FFE70198006840F2004123
:10200000C4F2000188421BD0FFE70198006840F647
:102010000001C4F20001884212D0FFE70198006875
:1020200040F60041C4F20001884209D0FFE7019860
:10203000006844F20001C4F20101884212D1FFE7B6
:1020400001980068806800F007000090009806285A
:1020500007D0FFE701980068016841F001010160C5
:10206000FFE706E001980068016841F001010160A6
:10207000FFE700208DF80B00FFE79DF80B0003B091
:102080007047000083B00190019890F83D0001284E
:1020900004D0FFE701208DF80B0058E001980221E1
:1020A00080F83D1001980068C16841F00101C160ED
:1020B000019800680021C4F2010188422AD0FFE79C
:1020C00001980068B0F1804F24D0FFE701980068C4
:1020D00040F20041C4F2000188421BD0FFE70198A2
:1020E000006840F60001C4F20001884212D0FFE708
:1020F0000198006840F60041C4F20001884209D00E
:10210000FFE70198006844F20001C4F2010188422F
:1021100012D1FFE701980068806800F00700009086
:102120000098062807D0FFE701980068016841F091
:1021300001010160FFE706E001980068016841F0D5
:1021400001010160FFE700208DF80B00FFE79DF81B
:102150000B0003B07047000080B58CB00A90099165
:1021600000208DF82300FFE70A9890F83C00012832
:1021700004D1FFE702208DF82F00BBE00A9801216F
:1021800080F83C10FFE7FFE70A98022180F83D1035
:102190000A98006880680790079820F077000790F9
:1021A000079820F47F40079007980A99096888608B
:1021B000099800680028069000F08280FFE70698E2
:1021C00010287DD0FFE70698202879D0FFE70698F1
:1021D000302875D0FFE70698402861D0FFE70698C1
:1021E00050283DD0FFE70698602849D0FFE70698C1
:1021F00070280BD0FFE70698B0F5805F05D0FFE7A9
:102200000698B0F5005F19D061E064E00A980068B4
:1022100009994A688B68C96805911946059B01F0C0
:1022200077FB0A98006880680790079840F077006D
:10223000079007980A99096888604CE00A98006836
:1022400009994A688B68C96804911946049B01F092
:102250005FFB0A980068816841F4804181603AE040
:102260000A98006809994A68C96803911146039A57
:1022700001F002FD0A980068502101F063FB2AE09A
:102280000A98006809994A68C96802911146029A39
:1022900001F01AFD0A980068602101F053FB1AE072
:1022A0000A98006809994A68C96801911146019A1B
:1022B00001F0E2FC0A980068402101F043FB0AE0CB
:1022C0000A9800680999096801F03CFB03E00120C5
:1022D0008DF82300FFE70A98012180F83D10FFE701
:1022E0000A98002180F83C10FFE79DF823008DF844
:1022F0002F00FFE79DF82F000CB080BD81B000904B
:1023000001B0704780B584B0039003980068C0683E
:10231000029003980068006901909DF8040080070E
:10232000002825D5FFE79DF80800800700281ED566
:10233000FFE7039800686FF0020101610398012133
:1023400001770398006880698007002804D0FFE7C0
:102350000398FFF7D3FF06E0039800F01BF90398FA
:1023600000F04AFBFFE7039800210177FFE7FFE752
:102370009DF804004007002825D5FFE79DF80800D8
:10238000400700281ED5FFE7039800686FF004019E
:10239000016103980221017703980068806910F4B5
:1023A000407F04D0FFE70398FFF7A8FF06E00398FB
:1023B00000F0F0F8039800F01FFBFFE703980021FE
:1023C0000177FFE7FFE79DF804000007002825D507
:1023D000FFE79DF80800000700281ED5FFE70398D7
:1023E00000686FF0080101610398042101770398E8
:1023F0000068C0698007002804D0FFE70398FFF752
:102400007DFF06E0039800F0C5F8039800F0F4FAA9
:10241000FFE7039800210177FFE7FFE79DF804003D
:10242000C006002825D5FFE79DF80800C006002853
:102430001ED5FFE7039800686FF010010161039853
:102440000821017703980068C06910F4407F04D028
:10245000FFE70398FFF752FF06E0039800F09AF8B1
:10246000039800F0C9FAFFE7039800210177FFE71E
:10247000FFE79DF80400C007002810D0FFE79DF893
:102480000800C007002809D0FFE7039800686FF034
:1024900001010161039800F075FBFFE7FFE79DF87C
:1024A00004000006002810D5FFE79DF8080000068C
:1024B000002809D5FFE7039800686FF080010161EB
:1024C0000398FFF707FCFFE7FFE79DF804004006CD
:1024D000002810D5FFE79DF808004006002809D520
:1024E000FFE7039800686FF040010161039800F076
:1024F0007BFBFFE7FFE79DF804008006002810D56E
:10250000FFE79DF808008006002809D5FFE703983B
:1025100000686FF0200101610398FFF7DFFBFFE720
:10252000FFE704B080BD000080B588B007900020B0
:10253000069005900490039002900798006840F67A
:102540000001C4F20001884221D1FFE7FFE700202B
:10255000019043F63000C4F20200016841F002012C
:102560000160006800F0020001900198FFE7402040
:10257000029002200390002104910591069040F200
:102580000040C4F2020002A9FEF7CEFBFFE708B04C
:1025900080BD000080B582B0019001980068B0F164
:1025A000804F40F08380FFE70198007F01287DD1B4
:1025B000FFE740F2FC30C2F2000001780131017007
:1025C0000078C007002854D1FFE740F2FC30C2F287
:1025D00000000021017040F26C10C2F2000081681E
:1025E0000139816040F27C11C2F200018A68013A2F
:1025F0008A600079012808D1FFE740F26C10C2F22E
:102600000000C1680131C16007E040F26C10C2F205
:102610000000C1680139C160FFE740F27C10C2F2DE
:1026200000000079012808D1FFE740F27C10C2F2D7
:102630000000C1680131C16007E040F27C10C2F2C5
:102640000000C1680139C160FFE740F26C10C2F2BE
:102650000000806800280BD1FFE740F27C10C2F236
:1026600000008068002803D1FFE701F0F9FDFFE7D3
:10267000FFE740F29420C2F200000168496B40F28B
:102680006812C2F2000211601168963148F201022C
:10269000C8F20002A1FB02234FEAD33C4FEA0C4CE4
:1026A000ACEBD333C91A00684163FFE702B080BDC9
:1026B00080B586B00590049100208DF80F00049835
:1026C0000C28029025D80299DFE801F00723232384
:1026D0000E232323152323231C0005980068C168BB
:1026E00021F00201C16018E005980068C16821F07E
:1026F0000401C16011E005980068C16821F008017B
:10270000C1600AE005980068C16821F01001C1604D
:1027100003E001208DF80F00FFE79DF80F0000286F
:102720006CD1FFE7059800680499002201F0D4F805
:10273000059800680021C4F2010188421BD1FFE71F
:10274000FFE705980068006A41F21111084210D1B4
:10275000FFE705980068006A40F24441084207D14B
:10276000FFE705980068416C21F400414164FFE7F0
:10277000FFE7FFE7FFE7FFE705980068006A41F21F
:102780001111084210D1FFE705980068006A40F275
:102790004441084207D1FFE705980068016821F02D
:1027A00001010160FFE7FFE7FFE70498002805D17A
:1027B000FFE70598012180F83E101EE004980428E8
:1027C00006D1FFE70598012180F83F10019112E042
:1027D0000498082806D1FFE70598012180F84010E9
:1027E000009105E00598012180F841100091FFE774
:1027F00000980190FFE70198FFE7FFE79DF80F00C1
:1028000006B080BD80B586B004900391029200208E
:102810008DF80700FFE7049890F83C00012804D1E8
:10282000FFE702208DF8170089E00498012180F865
:102830003C10FFE7FFE702980C28009000F2708040
:102840000099DFE801F0076D6D6D206D6D6D3A6DDB
:102850006D6D530004980068039901F089F804989D
:102860000068816941F0080181610498006881690C
:1028700021F00401816103980069049909688A695B
:102880001043886150E004980068039901F0D6F87D
:1028900004980068816941F40061816104980068CE
:1028A000816921F480618161039800690499096854
:1028B0008A6942EA0020886136E00498006803993A
:1028C00001F026F904980068C16941F00801C1616E
:1028D00004980068C16921F00401C161039800698E
:1028E00004990968CA691043C8611DE0049800682A
:1028F000039901F077F904980068C16941F4006117
:10290000C16104980068C16921F48061C1610398C4
:10291000006904990968CA6942EA0020C86103E0B5
:1029200001208DF80700FFE7FFE70498002180F8F9
:102930003C10FFE79DF807008DF81700FFE79DF8B2
:10294000170006B080BD000080B584B002900298E8
:10295000002804D1FFE701208DF80F0043E0029822
:1029600090F83D00002808D1FFE70298002180F888
:102970003C10029800F03CF8FFE70298022180F832
:102980003D10029850F8041B01900846019900F090
:1029900001FF0298012180F84610FFE7029801210B
:1029A00080F83E10029880F83F10029880F840109E
:1029B000029880F84110FFE7FFE70298012180F8B4
:1029C0004210029880F84310029880F84410029850
:1029D00080F84510FFE70298012180F83D100020A3
:1029E0008DF80F00FFE79DF80F0004B080BD0000D8
:1029F00081B0009001B0704781B0009001B0704785
:102A000080B58AB0089007910798002805D1FFE7A4
:102A1000089890F83E0005901CE00798042805D11E
:102A2000FFE7089890F83F00049010E00798082806
:102A300005D1FFE7089890F84000039004E008985B
:102A400090F841000390FFE703980490FFE7049893
:102A50000590FFE70598012804D0FFE701208DF8D5
:102A600027008BE00798002805D1FFE7089802218E
:102A700080F83E101EE00798042806D1FFE708986A
:102A8000022180F83F10029112E00798082806D131
:102A9000FFE70898022180F84010019105E00898AE
:102AA000022180F841100191FFE701980290FFE7B1
:102AB0000298FFE7089800680799012200F00CFFD0
:102AC000089800680021C4F20101884207D1FFE79D
:102AD00008980068416C41F400414164FFE70898A0
:102AE00000680021C4F2010188422AD0FFE708985B
:102AF0000068B0F1804F24D0FFE70898006840F2EA
:102B00000041C4F2000188421BD0FFE7089800682A
:102B100040F60001C4F20001884212D0FFE7089895
:102B2000006840F60041C4F20001884209D0FFE786
:102B30000898006844F20001C4F20101884212D1F1
:102B4000FFE708980068806800F007000690069884
:102B5000062807D0FFE708980068016841F00101E6
:102B60000160FFE706E008980068016841F0010194
:102B70000160FFE700208DF82700FFE79DF82700A0
:102B80000AB080BD80B582B00190019840F2DC218E
:102B9000C2F20001884219D1FFE740F25810C2F298
:102BA00000000079002810D0FFE740F25810C2F270
:102BB00000000068002808D0FFE740F25810C2F279
:102BC0000000016801390160FFE7FFE7019840F26A
:102BD0009421C2F20001884203D1FFE700F066FCB5
:102BE000FFE702B080BD000081B0009001B07047E7
:102BF00080B582B000900098002804D1FFE7012042
:102C00008DF8070042E000988069002801D0FFE7B6
:102C100000E0FFE7009890F84100002808D1FFE7A6
:102C20000098002180F84010009800F033F8FFE78A
:102C30000098242180F8411000980068C16821F4B0
:102C40000051C160009801F0B3F800980068016974
:102C500021F49041016100980068416921F02A0146
:102C6000416100980068C16841F40051C16000985A
:102C7000002141640098202280F84120009880F8CB
:102C80004220009841638DF80710FFE79DF8070088
:102C900002B080BD80B58CB00B9000200A900990E6
:102CA0000890079006900B98006841F20001C4F26A
:102CB0000101884260D1FFE7FFE70020059043F65D
:102CC0004400C4F20200016841F010010160006894
:102CD00000F0100005900598FFE7FFE70020049042
:102CE00043F63000C4F20200016841F001010160C6
:102CF000006800F0010004900498FFE74FF4C06002
:102D000006900220079000200890032109910721D6
:102D10000A910021C4F2020106AA01900846114658
:102D2000FEF702F840F28C10C2F2000046F2404179
:102D3000C4F2020101604FF00061416001998160BD
:102D4000C1604FF48062026141618161C1610162D1
:102D50004162FDF72DFF002803D0FFE7FDF782FD5C
:102D6000FFE7FFE70B9840F28C11C2F20001C1634C
:102D70000B988863FFE768E00B98006844F2004115
:102D8000C4F2000188425FD1FFE7FFE70020039013
:102D900043F64000C4F20200016841F400310160D2
:102DA000006800F4003003900398FFE7FFE700207D
:102DB000029043F63000C4F20200016841F00101C4
:102DC0000160006800F0010002900298FFE70C200B
:102DD0000690022007900020089003210991072106
:102DE0000A910021C4F2020106AA00900846114689
:102DF000FDF79AFF40F2EC10C2F2000046F28801A3
:102E0000C4F2020101604FF00061416000998160ED
:102E1000C1604FF48062026141618161C161016200
:102E20004162FDF7C5FE002803D0FFE7FDF71AFD5C
:102E3000FFE7FFE70B9840F2EC11C2F20001C1631B
:102E40000B988863FFE7FFE7FFE70CB080BD000049
:102E500080B584B0134602900191ADF8022002982B
:102E600090F84200202819D1FFE70198002805D0EA
:102E7000FFE7BDF80200002804D1FFE701208DF82C
:102E80000F000FE002980021016302980199BDF83C
:102E9000022001F039F88DF80F0003E002208DF8D0
:102EA0000F00FFE79DF80F0004B080BD80B58AB029
:102EB000944608900791ADF81A20059300200290DF
:102EC000089890F84100202840F08880FFE7079894
:102ED000002805D0FFE7BDF81A00002804D1FFE75D
:102EE00001208DF827007DE00898002141640898B2
:102EF000212180F84110FEF7E9F80290BDF81A0090
:102F000008998884BDF81A000899C88408988068D0
:102F1000B0F5805F0AD1FFE708980069002805D165
:102F2000FFE7002004900798039004E007980490BE
:102F300000200390FFE7FFE70898C08C002831D0FD
:102F4000FFE70898029B05996A46116080210022DC
:102F500001F00EF8002808D0FFE70898202180F83B
:102F6000411003208DF827003CE0049800280BD185
:102F7000FFE7039800886FF35F20089909684860AD
:102F800003980230039008E00498007808990968D3
:102F90004860049801300490FFE70898C18C01391B
:102FA000C184C9E70898029B05996A4611604021CF
:102FB000002200F0DDFF002808D0FFE7089820215C
:102FC00080F8411003208DF827000BE0089820219D
:102FD00080F8411000208DF8270003E002208DF8D2
:102FE0002700FFE79DF827000AB080BDFFE7FEE756
:102FF00080B586B0FFE70020059043F63000C4F2AC
:103000000200016841F400110160006800F4001042
:1030100005900598FFE7FFE70020049043F6300095
:10302000C4F20200016841F480010160006800F40C
:10303000800004900498FFE7102000210390029183
:10304000029AFEF7E1F80398FEF7D2F83A200190D1
:103050000299029AFEF7D8F80198FEF7C9F806B06F
:1030600080BD000080B58CB000200B900A900990C4
:1030700008900790FFE70020069043F63000C4F266
:103080000200016841F080010160006800F08000EA
:1030900006900698FFE7FFE70020059043F6300012
:1030A000C4F20200016841F001010160006800F013
:1030B000010005900598FFE7FFE70020049043F624
:1030C0003000C4F20200016841F0020101600068B2
:1030D00000F0020004900498FFE70020C4F2020010
:1030E00010210022039002910192FDF7D5FF029872
:1030F000079001210891019909910A9107A9039864
:10310000FDF712FE0CB080BD80B586B000200590A2
:103110000490039002900190009040F24C21C2F282
:1031200000010022C4F201020A6053224A60886052
:1031300042F20F72CA600861486188610846FEF772
:1031400051FE002803D0FFE7FDF78CFBFFE74FF4AB
:103150008050029040F24C20C2F2000002A9FEF71B
:10316000FBFF002803D0FFE7FDF77CFBFFE7002013
:103170000090019040F24C20C2F200006946FEF738
:10318000B1FD002803D0FFE7FDF76CFBFFE706B0B9
:1031900080BD000080B586B00020059004900390AB
:1031A00002900190009040F29421C2F200014FF091
:1031B00080420A6053224A60886040F2E732CA6067
:1031C000086188610846FEF70DFE002803D0FFE77E
:1031D000FDF748FBFFE74FF48050029040F2942047
:1031E000C2F2000002A9FEF7B7FF002803D0FFE7F4
:1031F000FDF738FBFFE700200090019040F294209B
:10320000C2F200006946FEF76DFD002803D0FFE71B
:10321000FDF728FBFFE706B080BD000080B586B053
:10322000002005900490039002900190009040F2DD
:10323000DC21C2F2000140F20042C4F200020A6046
:1032400053224A60886040F2E732CA6008618861B0
:103250000846FEF7C7FD002803D0FFE7FDF702FB95
:10326000FFE74FF48050029040F2DC20C2F20000F1
:1032700002A9FEF771FF002803D0FFE7FDF7F2FA7D
:10328000FFE700200090019040F2DC20C2F2000035
:103290006946FEF727FD002803D0FFE7FDF7E2FAB5
:1032A000FFE706B080BD000080B58EB000200D9015
:1032B0000C900B900A90099008900790069005904A
:1032C000049003900290019040F22431C2F2000178
:1032D00040F60002C4F200020A60486088604FF6BF
:1032E000FF72CA60086188610846FEF77BFD00280E
:1032F00003D0FFE7FDF7B6FAFFE74FF480500A90DE
:1033000040F22430C2F200000AA9FEF725FF00288F
:1033100003D0FFE7FDF7A6FAFFE740F22430C2F240
:103320000000FFF711FB002803D0FFE7FDF79AFA32
:10333000FFE700200890099040F22430C2F200001C
:1033400008A9FEF7CFFC002803D0FFE7FDF78AFAB3
:10335000FFE760200190002002900390059040F26A
:103360002431C2F2000101AA009008461146009AD9
:10337000FFF748FA002803D0FFE7FDF773FAFFE7ED
:1033800040F22430C2F20000FFF7CEF80EB080BD4C
:1033900080B540F26C30C2F2000041F20001C4F28C
:1033A000010101604FF4E131416000218160C160A1
:1033B00001610C2242618161C161FFF719FC0028A3
:1033C00003D0FFE7FDF74EFAFFE780BD80B540F27E
:1033D000B430C2F2000044F20041C4F200010160C6
:1033E0004FF4E131416000218160C16001610C2234
:1033F00042618161C161FFF7FBFB002803D0FFE759
:10340000FDF730FAFFE780BD80B50020C4F202006E
:1034100008210022FDF740FE80BD000080B500209D
:10342000C4F2020008210122FDF736FE80BD000033
:10343000FFE7FEE7FFE7FEE788B0079006910592F9
:10344000079800F0070004900498C0F107000528D1
:1034500003D3FFE70420019004E00498C0F10700C3
:103460000190FFE70198039004980430062803D8E0
:10347000FFE70020009003E0049803380090FFE786
:103480000098029006980399012202FA01F101398D
:10349000084002998840059B02FA01F10139194060
:1034A000084308B0704700007047000080B584B042
:1034B0000020039040F25110C2F20000012101707F
:1034C00040F25012C2F2000211700078002818D0A9
:1034D000FFE740F25110C2F2000000780A2810DC29
:1034E000FFE740F25010C2F200000078002808D038
:1034F000FFE740F25010C2F2000000780B2801DB19
:10350000FFE776E040F25110C2F20000007840F28E
:103510005511C2F20001087040F25010C2F20000D2
:10352000007840F25412C2F200021070087840F2A3
:103530009401C2F2000101EBC00351F8300040F2E7
:103540000041C2F20001086058684860107840F2FB
:103550000401C2F2000101EBC00251F8300040F258
:103560006011C2F2000108605068486040F2FD300E
:10357000C2F200000078012816D1FFE740F2541093
:10358000C2F20000017840F24C02C2F2000252F88E
:10359000311040F26013C2F200031960007802EBB0
:1035A000C00040685860FFE740F20040C2F20000EF
:1035B0000168406802900846029900F0ADFD00F0F5
:1035C0001DF8FFF72BFF00F021F840F26010C2F267
:1035D00000000168406801900846019900F09CFDD8
:1035E00000F00CF8FFF710FF00F010F800F0DEFD1F
:1035F000FFE704B080BD00007047000040F22430B7
:10360000C2F20000006896214163704740F2243006
:10361000C2F2000000684FF48271416370470000FD
:1036200080B582B0009000980138B0F1807F03D35C
:10363000FFE70120019019E0009801384EF21401D3
:10364000CEF2000108604FF0FF300F2100F024FDA2
:103650004EF21800CEF20000002101604EF2100080
:10366000CEF20000072202600191FFE7019802B04C
:1036700080BD000080B5FDF72FFD80BD80B594B002
:1036800008A83021FCF774FE0020079006900590F2
:1036900004900390FFE70020029043F64000C4F23C
:1036A0000200016841F080510160006800F0805024
:1036B00002900298FFE7FFE70020019047F2000028
:1036C000C4F200000168022262F38F3101600068D9
:1036D00000F4404001900198FFE7012008904FF46A
:1036E0008030099002200E904FF480010F91192133
:1036F0001091A821119112900420139008A8FDF7B1
:103700007BFF002803D0FFE7FDF7ACF8FFE70F20B1
:10371000039002200490002105914FF480520692FC
:10372000079103A9009008460099FDF795FD002830
:1037300003D0FFE7FDF796F8FFE714B080BD000067
:103740004EF68850CEF20000016841F4700101602D
:103750007047000080B540F24C20C2F20000FEF736
:10376000D1FD80BD80B540F29420C2F20000FEF78A
:10377000C9FD80BD80B540F2DC20C2F20000FEF73A
:10378000C1FD80BD80B540F22430C2F20000FEF7DA
:10379000B9FD80BD83B0029001910298006800904D
:1037A00002980021C4F2010188421DD0FFE702986F
:1037B000B0F1804F18D0FFE7029840F20041C4F208
:1037C0000001884210D0FFE7029840F60001C4F2E1
:1037D0000001884208D0FFE7029840F60041C4F299
:1037E000000188420AD1FFE7009820F070000090A5
:1037F00001984068009908430090FFE70298002173
:10380000C4F20101884235D0FFE70298B0F1804F41
:1038100030D0FFE7029840F20041C4F20001884234
:1038200028D0FFE7029840F60001C4F20001884268
:1038300020D0FFE7029840F60041C4F20001884220
:1038400018D0FFE7029844F20001C4F20101884257
:1038500010D0FFE7029844F20041C4F2010188420F
:1038600008D0FFE7029844F60001C4F20101884243
:103870000AD1FFE7009820F4407000900198C068DA
:10388000009908430090FFE7009820F0800001991C
:10389000496908430090019880680299C8620198BC
:1038A00000680299886202980021C4F201018842EE
:1038B00005D1FFE70198006902990863FFE70298C4
:1038C000016841F004010160029801214161009802
:1038D0000299086003B0704784B00390029101928E
:1038E000029800F01F00012101FA00F000900098FA
:1038F00003990A6A22EA000008620198029901F01D
:103900001F01884003990A6A1043086204B0704797
:1039100085B004900391029201930498806800900E
:10392000009820F47F40009003980299019A41EAA0
:103930000221084300990843009000980499886088
:1039400005B0704783B002900191029880680090A2
:10395000009820F07000009001980099084340F012
:103960000700009000980299886003B0704700003B
:1039700085B0049003910498006A01900498016A4C
:1039800021F0010101620498406800900498806968
:103990000290029820F070000290029820F003003C
:1039A000029003980068029908430290019820F061
:1039B00002000190039880680199084301900498DF
:1039C0000021C4F2010188420ED1FFE7019820F0E6
:1039D000080001900398C06801990843019001987C
:1039E00020F004000190FFE704980021C4F20101D7
:1039F000884213D1FFE7009820F48070009000986F
:103A000020F40070009003984069009908430090EA
:103A100003988069009908430090FFE70098049993
:103A20004860029804998861039840680499486343
:103A300001980499086205B07047000085B00490B1
:103A400003910498006A01900498016A21F0100122
:103A5000016204984068009004988069029002987E
:103A600020F4E0400290029820F440700290039805
:103A70000068029941EA00200290019820F020009D
:103A8000019003988068019941EA00100190049820
:103A90000021C4F2010188420FD1FFE7019820F014
:103AA000800001900398C068019941EA00100190DC
:103AB000019820F040000190FFE704980021C4F233
:103AC0000101884215D1FFE7009820F48060009042
:103AD000009820F40060009003984069009941EA42
:103AE0008000009003988069009941EA800000906E
:103AF000FFE7009804994860029804998861039848
:103B000040680499886301980499086205B0704779
:103B100085B0049003910498006A01900498016AAA
:103B200021F4807101620498406800900498C06993
:103B30000290029820F070000290029820F003009A
:103B4000029003980068029908430290019820F4BB
:103B50000070019003988068019941EA002001906B
:103B600004980021C4F2010188420FD1FFE70198B7
:103B700020F4006001900398C068019941EA002098
:103B80000190019820F480600190FFE704980021E3
:103B9000C4F20101884215D1FFE7009820F480505B
:103BA0000090009820F4005000900398406900991C
:103BB00041EA0010009003988069009941EA0010E2
:103BC0000090FFE700980499486002980499C86142
:103BD000039840680499C86301980499086205B085
:103BE0007047000085B0049003910498006A01902A
:103BF0000498016A21F480510162049840680090A1
:103C00000498C0690290029820F4E0400290029863
:103C100020F44070029003980068029941EA002065
:103C20000290019820F40050019003988068019957
:103C300041EA0030019004980021C4F20101884259
:103C40000BD1FFE7009820F4804000900398406972
:103C5000009941EA80100090FFE7009804994860BD
:103C600002980499C861039840680499086401980F
:103C70000499086205B0704785B0049003910292E0
:103C80000498006A00900498016A21F00101016221
:103C9000049880690190019820F0F000019002984A
:103CA000019941EA00100190009820F00A0000906C
:103CB000039800990843009001980499886100983E
:103CC0000499086205B0704785B004900391029290
:103CD0000498006A00900498016A21F010010162C2
:103CE000049880690190019820F470400190029836
:103CF000019941EA00300190009820F0A000009066
:103D00000398009941EA0010009001980499886195
:103D100000980499086205B07047000084B00390D1
:103D2000FFE7FFE70398006850E8030F20F4907066
:103D30000290FFE702980399096841E80302002A0C
:103D4000F0D1FFE7FFE7FFE7FFE70398006850E8DF
:103D5000050F20F001000190FFE701980399096821
:103D600041E80502002AF0D1FFE7FFE70398006B66
:103D7000012814D1FFE7FFE7FFE70398006850E848
:103D8000030F20F010000090FFE7009803990968E6
:103D900041E80302002AF0D1FFE7FFE7FFE70398BD
:103DA000202180F8421003980021016304B070477D
:103DB00080B588B0079007980068006920F44050EB
:103DC00007990A68C9680843106107988168026901
:103DD0004369C06911431943084306900798006876
:103DE000C06849F20C61884306990843079909683D
:103DF000C86007980068406920F4407007990A6815
:103E00008969084350610798006841F20001C4F2D3
:103E10000101884209D0FFE70798006841F200419C
:103E2000C4F20101884204D1FFE7FDF75FFB059072
:103E300003E0FDF749FB0590FFE70798C069B0F57F
:103E4000004F2FD1FFE705981921A0FB0101079A28
:103E5000136852684FEA420CD20F04926246DDF8B2
:103E600010C003936346FCF70BFA48F21F51C5F2EA
:103E7000EB11A0FB01235B094FEA031C4FF0640E1A
:103E800003FB1E00322303EBC000A0FB0101F8235B
:103E900003EA51130CEB4303C1F342111944039B92
:103EA00099602EE005981921A0FB0101079A13687B
:103EB00052684FEA820C920F02926246DDF808C007
:103EC00001936346FCF7DCF948F21F51C5F2EB1190
:103ED000A0FB01235B094FF0640C03FB1C004FF0B7
:103EE000320C0CEB0010A0FB01014FF0F00C0CEABF
:103EF000511C0CEB0313C1F343111944019B99604E
:103F0000FFE708B080BD000083B013460290019126
:103F1000ADF80220019802998862BDF8020002996A
:103F20008885BDF802000299C88502980021416485
:103F30000298222180F8421002980069002807D0D8
:103F4000FFE702980068C16841F48071C160FFE733
:103F500002980068416941F00101416102980068DE
:103F6000C16841F02001C160002003B0704700002B
:103F700080B586B0DDF820C09646049003918DF898
:103F80000B200193FFE7049800680068039908403C
:103F9000401AB0FA80F040099DF80B1088424ED1CB
:103FA000FFE708980130002848D0FFE7FDF78EF8BA
:103FB0000199401A0899884204D8FFE70898002818
:103FC00004D1FFE703208DF817003CE00498006857
:103FD000C0684007002830D5FFE7039880282CD020
:103FE000FFE70398402828D0FFE70498006800689E
:103FF00000F008000121B1EBD00F1DD1FFE7FFE772
:104000000020009004980068006800900498006800
:10401000406800900098FFE70498FFF77FFE04983F
:1040200008214164FFE70498002180F84010FFE771
:1040300001208DF8170006E0FFE7FFE7A3E7002067
:104040008DF81700FFE79DF8170006B080BD00004F
:10405000FFE7FEE781B001468DF803009DF90300FC
:1040600000280FD4FFE79DF9030000F01F01012293
:1040700002FA01F140094EF20012CEF2000242F8BB
:104080002010FFE701B070474EF60C50CEF2000052
:104090000068C0F30220704782B002468DF8070026
:1040A00000919DF9070000280AD4FFE7009800015D
:1040B0009DF907104EF20042CEF2000288540BE048
:1040C000009800019DF8071001F00F014EF6145200
:1040D000CEF200028854FFE702B0704783B002902E
:1040E000029800F0070000904EF60C50CEF200004F
:1040F0000168019101994FF6FF0211400191019968
:10410000009A41EA02210022C0F2FA5211430191C1
:104110000199016003B0704710B58AB00990089109
:10412000BDF8242040F25210C2F20000037840F2A1
:10413000E401C2F2000191F800C0BCF1000F18BF09
:104140004FF0010CEE464FF00004CEF80840CEF8D8
:1041500004C04FF4FA7CCEF800C04FF0010E079077
:104160007046069121460594CDF810C0FCF71AFB65
:10417000BDF8202007980378069991F800C0BCF19B
:10418000000F18BF4FF0010CEE46059CCEF808401A
:10419000CEF804C0DDF810C0CEF800C04FF0020029
:1041A0002146FCF7FFFA0AB010BD000080B582B0CE
:1041B000002001900199FFF7AFFF02B080BD000021
:1041C00080B58AB0002009900890FCF793FF079013
:1041D000FFF754FAFEF746FFFEF70AFFFFF7D8F89D
:1041E000FEF7D8FFFEF790FFFFF718F8FFF75CF82F
:1041F000FFF7ECF840F24C20C2F20000FDF7DEFEC3
:1042000040F29421C2F2000106900846FDF73AFF01
:1042100040F2DC21C2F2000105900846FDF732FFB2
:1042200040F22431C2F20001049008460391FDF7E8
:10423000C5FE0399029008460899FEF7E1FB40F29B
:104240006C31C2F2000140F2FE32C2F200020123E0
:104250000190084611461A46FEF7FAFDFFE7FEE711
:1042600080B582B040F29420C2F20000002101909B
:10427000FEF71EFA0421019A00901046FEF718FA84
:1042800002B080BD80B582B00A4601908DF803105F
:1042900000208DF802008DF80200FFE79DF8020073
:1042A0009DF80310884214DAFFE701989DF8021088
:1042B000014440F2B430C2F2000001224FF0FF335B
:1042C000FEF7F4FDFFE79DF8020001308DF80200D3
:1042D000E4E702B080BDF1EE100A4FF6FF71C0F2C4
:1042E000C03120EA010040F04070E1EE100A704752
:1042F0000000000000000000010203040607080996
:10430000000000000102030400061016000610164B
:104310003043000800000020F0000000D001000839
:1043200020440008F000002020090000EC010008F3
:104330000024F40050140000D84000005014000085
:104340005235000050140000042900006C200000C9
:10435000744000003A20000052350000A41F000005
:10436000042900008E2B0000744000008E2B0000FA
:10437000523500008E2B000004290000A00F000021
:104380004C360000D4170000B83D00000C170000A8
:10439000B42D00006C20000088450000A41F000020
:1043A00084350000DC1E0000802500003C28000051
:1043B000F03C000010270000EC2C0000442F00000F
:1043C000583400003A070000685B0000F212000059
:1043D000FE5B0000AA1E0000945C0000942A00000E
:1043E000F85C00007E360000F85C0000C4090000A4
:1043F000420E00007C150000420E00003421000037
:10440000420E0000EC2C0000A60E0000A4380000B4
:104410000A0F000001010000100000000000000071
:040000050800019559
:00000001FF
