:020000040800F2
:100000001009002035020008F51B00083D18000803
:10001000F11B00082D040008252200080000000044
:10002000000000000000000000000000D11C0008DB
:100030003104000800000000251C0008291D0008EC
:100040004F0200084F0200084F0200084F0200084C
:100050004F0200084F0200084F0200084F0200083C
:100060004F0200084F0200084F0200084F0200082C
:100070004F0200084F0200084F0200084F0200081C
:100080004F0200084F0200084F0200080000000065
:100090000000000000000000000000004F02000807
:1000A0004F020008E51D00084F0200084F0200083B
:1000B000F51D0008051E0008151E00084F02000867
:1000C0004F0200084F0200084F0200084F020008CC
:1000D0004F0200084F0200084F0200080000000015
:1000E0004F0200084F0200084F0200080000000005
:1000F0000000000000000000000000004F020008A7
:10010000000000004F0200084F0200084F020008E4
:1001100000000000000000000000000000000000DF
:100120004F0200084F0200084F0200084F0200086B
:100130004F02000800000000000000000000000066
:100140000000000000000000000000004F02000856
:100150004F0200084F0200084F0200084F0200083B
:100160004F0200084F0200080000000000000000DD
:10017000000000000000000000000000000000007F
:10018000000000004F020008000000000000000016
:100190004F02000800F002F800F03CF80AA090E8D6
:1001A000000C82448344AAF10107DA4501D100F032
:1001B00031F8AFF2090EBAE80F0013F0010F18BFC3
:1001C000FB1A43F001031847D8220000F822000070
:1001D000103A24BF78C878C1FAD8520724BF30C873
:1001E00030C144BF04680C60704700000023002445
:1001F00000250026103A28BF78C1FBD8520728BF37
:1002000030C148BF0B6070471FB502F02FF91FBD0A
:1002100010B510BD00F0D0F81146FFF7F5FF02F061
:10022000B9F800F0EEF803B4FFF7F2FF03BC00F0FA
:10023000F5F800000948804709480047FEE7FEE757
:10024000FEE7FEE7FEE7FEE7FEE7FEE7FEE7FEE786
:1002500004480549054A064B70470000D11D0008B7
:10026000950100081003002010090020100500204F
:100270001005002053EA020C00F069802DE9F04BD4
:100280004FF00006002B1FBFB3FA83F503FA05F405
:1002900024FA05F65E4012BF1643B2FA82F502FA5E
:1002A00005F4C5F120051EBF22FA05FC44EA0C0442
:1002B000203556EA044C4FEA144418BF641C4FF032
:1002C00000084FF00009904271EB030C39D300296C
:1002D00019BFB1FA81F701FA07F6B0FA80F700FA10
:1002E00007F6C7F120071EBF20FA07FC46EA0C06F6
:1002F0002037B6FBF4FCA7EB0507103F07F01F0BF8
:10030000CBF120062CFA06F60CFA0BFB44BFB346E1
:100310000026202FA4BF5E464FF0000B5BEA060CC0
:1003200008BF4FF0010B19EB0B0948EB0608ABFBBC
:10033000027C06FB02CC0BFB03CCC01B71EB0C0157
:10034000C1E70B46024641464846BDE8F08B13B56F
:10035000084318BF4FF0FF300146AFF30080BDE8FF
:100360001C4070474FF0000200B513469446964675
:10037000203922BFA0E80C50A0E80C50B1F12001B8
:10038000BFF4F7AF090728BFA0E80C5048BF0CC066
:100390005DF804EB890028BF40F8042B08BF7047C4
:1003A00048BF20F8022B11F0804F18BF00F8012B36
:1003B0007047704770477047754600F02BF8AE469F
:1003C00005006946534620F00700854618B020B561
:1003D000FFF73EFFBDE820404FF000064FF000075A
:1003E0004FF000084FF0000BAC46ACE8C009ACE899
:1003F000C009ACE8C009ACE8C00921F007018D468E
:10040000704710B50446AFF300802046BDE81040A9
:10041000FFF709BF00487047F0000020014918208D
:10042000ABBEFEE72600020070470000FEE70000BA
:100430007047000072B600BFFEE700002DE9F04FE4
:1004400083B000F13E4202F1FF724FEAB22241F264
:1004500000070192C4F2020707224FF0010E0025A7
:100460004FF0000A4FF00008B84208BF0422009283
:100470000AE000BF08F101080AF1040AB8F1100F00
:1004800005F1020500F0A4800C680EFA08FB14EADE
:100490000B09EFD04C6804F0030CACF1010EBEF177
:1004A000010F11D80322876802FA05F6CA68B7431C
:1004B000AA403A4382604268C4F3001722EA0B0262
:1004C00007FA08F73A434260BCF1030F1CD0C26838
:1004D00003238E6803FA05F7BA4306FA05F73A4391
:1004E000BCF1020FC2600FD16FF0030202EA5802A2
:1004F00002440AF01C060F23176A03FA06F40B697C
:10050000A743B3403B431362026803234F68AB40E9
:100510009A4307F00303AB401A4317F4403F4FF0F0
:10052000010E0260A6D0002243F644030292C4F2F8
:1005300002031A6843F6004442F480421A601A68C3
:10054000C4F2010402F480420292029A28F00302EB
:100550004FF6084B2244CFF6FF7B52F80B300AF0DF
:100560000C070F26BE4023EA060C019B009E042BBD
:1005700038BF1E4606FA07F747EA0C0342F80B306D
:10058000A2684B6842EA090743F60C4CDE0258BFEA
:1005900022EA0907A760C4F2010CDCF800209E02E1
:1005A00042EA090758BF22EA0907CCF800706268DE
:1005B0009E0342EA090758BF22EA090767602268DA
:1005C000DB0342EA090358BF22EA0903236051E72B
:1005D00003B0BDE8F08F0000002A08BF0904816164
:1005E0007047000040F20C30C2F200000068704713
:1005F00040F2E40040F20C31C2F20000C2F200010D
:1006000000780A68104408607047000080B543F61F
:100610000040C4F20200016841F400710160016809
:1006200041F480610160016841F480710160032040
:1006300000F060F80F2000F005F800F02BF8002023
:1006400080BD0000B0B540F2E402C2F2000240F208
:1006500000011278C2F200014FF47A730968B3FB0B
:10066000F2F20446B1FBF2F1084600F0F7FA0F2C63
:100670004FF001050CD858B94FF0FF302146002249
:10068000002500F027F840F2E800C2F20000046004
:100690002846B0BD82B0002043F640010190C4F26C
:1006A00002014A6842F480424A604A6802F4804289
:1006B0000192019A0090086840F080500860086834
:1006C00000F080500090009802B0704780B501F0B3
:1006D000ABFD80BD70B514460D46064601F0B4FD75
:1006E0002946224601F088FA0146304601F0B4FD61
:1006F00070BD000080B501F0C1FD80BD2DE9F04165
:10070000002800F08B8043F60808C4F20208044673
:10071000D8F8F8030D4600F00700884207D288F8A1
:10072000F853D8F8F80300F00700A84276D1206803
:10073000810717D5410705D5D8F8001041F4E051DD
:10074000C8F80010010705D5D8F8001041F4604141
:10075000C8F80010D8F80010A26821F0F001114389
:10076000C8F80010C0073FD1D8F8F80300F0070020
:10077000A84207D988F8F853D8F8F80300F0070022
:10078000A8424BD12068410707D5D8F80010E2688D
:1007900021F4E0511143C8F80010000708D5D8F83B
:1007A0000000216920F4604040EAC100C8F8000060
:1007B00000F07EF8D8F8001042F28642C1F303112F
:1007C000C0F60002515C40F2000220FA01F140F252
:1007D000E800C2F200000068C2F200021160FFF7F8
:1007E00031FF0020BDE8F0816068811E022907D238
:1007F00058F8081C89015CBF0120BDE8F08110E0B9
:10080000012807D158F8081C89035CBF0120BDE806
:10081000F08106E058F8081C890702D40120BDE8E1
:10082000F081D8F8001021F003010843C8F8000057
:10083000FFF7D8FE064641F2883700BFD8F800001F
:10084000616800F00C00B0EB810F8DD0FFF7CAFE9D
:10085000801BB842F2D90320BDE8F08140F20000CD
:10086000C2F200000068704780B5FFF7F7FF43F65B
:100870000801C4F20201096842F29642C1F38221E2
:10088000C0F60002515CC84080BD000080B5FFF793
:10089000E5FF43F60801C4F20201096842F29642FC
:1008A000C1F34231C0F60002515CC84080BD000077
:1008B00010B543F60404C4F20204606800F00C00B2
:1008C00008280AD0042819BF42F20040C0F2F40000
:1008D00047F64000C0F27D1010BD206821682368F3
:1008E000490247F64001C0F27D1100F03F02C3F318
:1008F00088105CBF42F20041C0F2F401A1FB00018C
:100900000023FFF7B7FC21680222C1F3014102EB8B
:100910004101B0FBF1F010BD2DE9F04182B000289B
:1009200000F09F800446007843F60006C007C4F23A
:10093000020641D0B06800F00C00042805D13068F0
:10094000800339D56068B8BB8BE0B06800F00C005C
:10095000082802D170684002F1D46568B5F5803F7F
:1009600006D03068B5F5A02F06D140F48020306065
:10097000306840F4803005E020F48030306030682A
:1009800020F480203060FFF72DFE002D054610D0AA
:100990003068800310D4FFF725FE401B6428F7D988
:1009A00022E100BFFFF71EFE401B64284FF003004A
:1009B00054D830688003F5D4207880071AD5B06801
:1009C00010F00C0F09D0B06800F00C00082840F0BF
:1009D0008C807068400200F188803068800702D502
:1009E000E06801283DD13068216920F0F80040EA34
:1009F000C10030602078000737D4207840074AD4FF
:100A0000A56955B3B06800F00C00082840F0A0803C
:100A1000012D26D07068E16900F480028A4220D15D
:100A2000216A00F03F028A421BD147F6C071626A18
:100A30000140B1EB821F14D1A16A4FF6FF73C903C5
:100A4000994300F44032A1F580318A4209D1E16A2C
:100A500000F07060B0EB016F03D1002002B0BDE880
:100A6000F081012002B0BDE8F0816069002840F209
:100A70000000C4F247205AD00121C0F8801EFFF7C1
:100A8000B1FD0546706F8007B7D4FFF7ABFD401B83
:100A90000228F7D9A8E0306C4FF00008C0000CD451
:100AA000CDF80480306C4FF0010840F08050306485
:100AB000306C00F080500190019847F20007C4F2BA
:100AC00000073868C00525D4386840F48070386065
:100AD000FFF788FD054600BF3868C0051AD4FFF748
:100AE00081FD401B0228F7D97EE0E068002851D044
:100AF0000020C4F2472001210160FFF773FD054685
:100B0000306880073FF56FAFFFF76CFD401B022890
:100B1000F6D969E0A568012D05D0306F052D4DD1BE
:100B200040F004003067306F40F001004CE00021DD
:100B3000C0F8801EFFF756FD054600BF706F8007A6
:100B40007FF55BAFFFF74EFD401B0228F6D94BE067
:100B50000027C4F2472700203866FFF743FD022D27
:100B600005460BD13068800156D5FFF73BFD401B91
:100B700002284FF00300F5D970E700BF306880010C
:100B80007FF56BAFFFF72EFD401B02284FF00300EF
:100B9000F4D963E70020C4F2472000210160FFF789
:100BA00021FD0546306880077FF524AFFFF71AFD69
:100BB000401B02284FF00300F4D94FE720F001005A
:100BC0003067306F20F004003067FFF70BFD002D19
:100BD000054641F2883713D0306F800713D4FFF7F2
:100BE00001FD401BB842F7D9032002B0BDE8F081F7
:100BF000FFF7F8FC401BB8424FF003003FF62EAF62
:100C0000306F8007F4D4B8F1000F3FF4F9AE306CC8
:100C100020F080503064F3E604F11C052FCD08432A
:100C200040EA8210D9034FF6FF729143A1F580315B
:100C300040EA05600843706001203866FFF7D2FC87
:100C4000044600BF306880013FF507AFFFF7CAFCDC
:100C5000001B02284FF00300F4D9FFE680B501F035
:100C60004BF880BD704700007047000010B590F849
:100C70003C20012A4FF0020240D0012380F83C3092
:100C800080F83D200268D2F804E0D2F808C00C6871
:100C90002EF07003234340F6FF34C4F20004A24256
:100CA00053600FDCB2F1804F1DD040F20043C4F21C
:100CB00000039A4217D040F60003C4F200039A42A0
:100CC00011D015E040F60043C4F200039A420AD066
:100CD00044F20003C4F201039A4204D00023C4F298
:100CE00001039A4204D149682CF0800319439160B2
:100CF0000121002280F83D1080F83C20104610BDF4
:100D0000002804BF0120704710B5044690F83D004C
:100D100028B9002084F83C00204600F01FF802208B
:100D200084F83D002068211D01F07CF8012084F842
:100D3000460084F83E0084F83F0084F8400084F8C0
:100D4000410084F8420084F8430084F8440084F8A9
:100D5000450084F83D00002010BD000010B582B0B1
:100D6000006840F2FF71C4F2000188421CDCB0F15F
:100D7000804F38D040F20041C4F2000188425ED179
:100D80000020019043F64000C4F2020001680022F6
:100D900041F0020101600068002100F002000190B2
:100DA00001981D201D2445E040F60001C4F2000119
:100DB00088422CD00021C4F2010188423FD100209A
:100DC000019043F64000C4F202004168002241F065
:100DD000010141604068012100F00100019001988B
:100DE0001920192426E00020019043F64000C4F2A7
:100DF00002000168002241F0010101600068002149
:100E000000F00100019001981C201C2412E0002039
:100E1000019043F64000C4F202000168002241F054
:100E2000040101600068002100F0040001900198B5
:100E30001E201E24FFF74EFC2046FFF747FC02B0A1
:100E400010BD000090F83D1001291CBF0120704723
:100E5000022180F83D10006840F6FF31C4F2000125
:100E600088420FDCB0F1804F1DD040F20041C4F247
:100E70000001884217D040F60001C4F20001884208
:100E800011D017E040F60041C4F2000188420AD0B8
:100E900044F20001C4F20101884204D00021C4F2EE
:100EA0000101884206D1816801F00701062904BFCB
:100EB00000207047016841F0010101600020704787
:100EC00090F83D1001291CBF01207047022180F8D5
:100ED0003D10006840F6FF32C168C4F20002904243
:100EE00041F00101C1600FDCB0F1804F1DD040F234
:100EF0000041C4F20001884217D040F60001C4F25C
:100F00000001884211D017E040F60041C4F2000110
:100F100088420AD044F20001C4F20101884204D0A0
:100F20000021C4F20101884206D1816801F0070165
:100F3000062904BF00207047016841F001010160EB
:100F40000020704710B5044690F83C0001284FF08F
:100F5000020008BF10BD012284F83C2084F83D0047
:100F600020684FF6777382689A4382600A684F2A36
:100F70000FDC1F2A22DD202A23D0302A21D0402A4C
:100F80004DD14B68CA68194601F0A0F8206840218D
:100F90003BE06F2A17DDB2F5005F20D0B2F5805F2D
:100FA0002AD0702A3BD1D1E9012CCB68614600F0F0
:100FB000BDFF2068816841F077011AE00AB1102A6C
:100FC0002DD1114621E0502A18D0602A27D14B6834
:100FD000CA68194601F08CF82068602115E0D1E953
:100FE000012CCB68614600F0A1FF2068816841F4C4
:100FF0008041816000200BE0002009E04B68CA6856
:10100000194601F063F82068502100F09BFF002092
:10101000012184F83D10002184F83C1010BD01200E
:10102000F6E7000070470000B0B504460068C168EC
:10103000026902EA0105A9071DD4680731D428070F
:1010400047D4E8065CD4E80773D128067BD4680649
:1010500006D520686FF040010161204600F06CFB6E
:10106000A80658BFB0BD20686FF02001016120467E
:10107000FFF7FAFDB0BD6FF0020101610121217798
:101080008069800703D02046FFF7CCFF05E02046AB
:1010900000F0EAF8204600F0C7FA00202077680741
:1010A000CDD520686FF004010161022121778069AC
:1010B00010F4407F03D02046FFF7B4FF05E0204640
:1010C00000F0D2F8204600F0AFFA00202077280781
:1010D000B7D520686FF00801016104212177C0694C
:1010E000800703D02046FFF79DFF05E0204600F073
:1010F000BBF8204600F098FA00202077E806A2D539
:1011000020686FF01001016108212177C06910F497
:10111000407F03D02046FFF785FF05E0204600F022
:10112000A3F8204600F080FA00202077E8073FF47B
:101130008CAF20686FF001010161204600F0E0FAF9
:1011400028067FF584AF20686FF08001016120469A
:10115000FFF788FD68067FF583AF7AE770B586B044
:101160000021CDE90411CDE90211006840F600022A
:10117000C4F20002904201912FD0B0F1804F49D1CA
:10118000002443F630000094C4F2020001680125F7
:1011900041F0010101600168022601F001010091A6
:1011A00000990094016841F002010160006801A902
:1011B00000F00200009000980020C4F202000195A7
:1011C000CDE90264CDE90445FFF738F90820CDE9FF
:1011D0000106CDE90344059514E043F63000009183
:1011E000C4F20200026842F002020260006800F0ED
:1011F000020000900098402001900220CDE90201F9
:10120000CDE904100020C4F2020000F5806001A9BD
:10121000FFF714F906B070BD10B5044690F83C0015
:10122000012804BF022010BD4FEAB2020120032AA8
:1012300084F83C0013D8DFE802F002060A0E2068AA
:1012400000F088FE0AE0206800F0B4FE06E02068A6
:1012500000F0E4FE02E0206800F014FF002000210E
:1012600084F83C1010BD000080B50168B1F1804FDA
:1012700000D080BD007F012818BF80BD40F2F4205F
:10128000C2F2000001780131CA07017026D10021A5
:10129000017040F26C11C2F2000188680138886068
:1012A00040F27C10C2F200008268013A82600A7942
:1012B000CB68012A18BF4FF0FF321A44CA60027986
:1012C000C368012A18BF4FF0FF321A44C260896810
:1012D00021B98068002808BF01F0BAF840F2D410A4
:1012E000C2F20000D0F800C048F20103DCF834106C
:1012F000C8F2000301F19602A2FB033040F268132A
:10130000C2F200031960C10B0904A1EBD030101A1E
:10131000CCF8340080BD0000002804BF01207047D5
:1013200010B5044690F83D0028B9002084F83C0030
:10133000204600F01FF8022084F83D002068211D9F
:1013400000F070FD012084F8460084F83E0084F827
:101350003F0084F8400084F8410084F8420084F89B
:10136000430084F8440084F8450084F83D000020E0
:1013700010BD00007047000070B5044641B1082957
:1013800009D0042914BF04F1410004F13F0004E036
:1013900004F13E0001E004F14000007801281CBF88
:1013A000012070BD022041B1082909D0042914BFD1
:1013B00084F8410084F83F0004E084F83E0001E036
:1013C00084F840004FEAB10003280AD8236828A215
:1013D00052F82000DA6800251043D860002D3ED175
:1013E00001E00125DDBB206844260122C4F201068C
:1013F00000F08AFD2068A6F14401884203D13168DB
:1014000041F40041316040F6FF31C4F200018842EE
:101410000FDCB0F1804F1DD040F20041C4F200015A
:10142000884217D040F60001C4F20001884211D072
:1014300017E040F60041C4F2000188420AD044F2AD
:101440000001C4F20101884204D00021C4F201016C
:10145000884206D1816801F00701062901D128469A
:1014600070BD016841F001010160284670BD00BFF8
:10147000020000000400000008000000100000004E
:10148000F0B581B00E464FEAB1010329044609D8F0
:10149000226823A050F82100D16800250840D060C0
:1014A000D5BB01E00125BDBB2068002731460022E5
:1014B000C4F2010700F028FD2068B8420DD1396A56
:1014C00041F21112114208D1016A40F24442114224
:1014D00003D1416C21F400414164016A41F21112CF
:1014E000114208D1016A40F24442114203D101681D
:1014F00021F0010101600120082E08D0042E09D03E
:10150000002E14BF84F8410084F83E0004E084F803
:10151000400001E084F83F00284601B0F0BD00BF64
:10152000FDFFFFFFFBFFFFFFF7FFFFFFEFFFFFFFE9
:10153000B0B5044690F83C00012804BF0220B0BDBD
:101540000D464FEAB2010120032984F83C0037D848
:10155000DFE801F0020A12222068294600F0FAFCB6
:10156000206850F8181F0EE02068294600F022FD80
:10157000206850F8181F16E02068294600F04EFD3C
:10158000206850F81C1F41F008010160016821F03B
:101590000401016029690FE02068294600F072FD0E
:1015A000206850F81C1F41F400610160016821F4BB
:1015B000806101602969090202681143016000200D
:1015C000002184F83C10B0BD002804BF0120704702
:1015D00010B5044690F83D0028B9002084F83C007E
:1015E000204600F01FF8022084F83D002068211DED
:1015F00000F018FC012084F8460084F83E0084F8CE
:101600003F0084F8400084F8410084F8420084F8E8
:10161000430084F8440084F8450084F83D0000202D
:1016200010BD00007047000070470000B0B50446D0
:1016300041B1082909D0042914BF04F1410004F183
:101640003F0004E004F13E0001E004F140000078B6
:1016500001281CBF0120B0BD022041B1082909D0DA
:10166000042914BF84F8410084F83F0004E084F8A2
:101670003E0001E084F84000206844250122C4F2C5
:10168000010500F041FC2068A5F14401884203D126
:10169000296841F40041296040F6FF31C4F200019D
:1016A00088420FDCB0F1804F1DD040F20041C4F2FF
:1016B0000001884217D040F60001C4F200018842C0
:1016C00011D017E040F60041C4F2000188420AD070
:1016D00044F20001C4F20101884204D00021C4F2A6
:1016E0000101884206D1816801F00701062904BF83
:1016F0000020B0BD016841F0010101600020B0BDD3
:1017000080B540F21C21C2F2000188420AD140F2A9
:101710005811C2F200010A7922B10A6812B10A68AE
:10172000013A0A6040F2D411C2F20001884208BFB7
:1017300000F07AFA80BD000070470000002804BF66
:101740000120704710B5044690F8410028B90020E8
:1017500084F84000204600F021F8242084F841005D
:101760002068C16821F40051C160204600F0D2FC1D
:101770002068016921F490410161416921F02A0149
:101780004161C16841F40051C160002020216064C2
:1017900084F8411084F84210606310BD80B586B0B3
:1017A00000220592CDE9032241F200010068C4F253
:1017B000010188420292019201D006B080BD43F639
:1017C00030000092C4F20200436943F01003436109
:1017D000436903F010030093009B0092036843F0F9
:1017E00001030360006800F00100009000984FF4CE
:1017F000C06001900220CDE902020320049007207E
:10180000059001F5704001A9FEF718FE06B080BDF5
:1018100010B590F84230202B1CBF022010BD0029CB
:101820004FF0010418BF002A01D1204610BD00244A
:10183000046300F0DDFC204610BD0000FEE7000060
:101840002DE9F04387B0002743F630000697CDE935
:101850000477CDE902770197C4F202000168002401
:1018600041F0800101600168C4F2020401F08001CE
:101870000191019901970168002241F00101016085
:1018800001680E2601F0010101910199019701689B
:1018900041F00201016000680E2100F00200019099
:1018A00001982046FEF798FE04F58065284606213B
:1018B00000224FF00608FEF78FFE029602AE4FF0B0
:1018C000010920463146CDE903970597FEF7B6FD9D
:1018D00028463146CDE90289CDE90477FEF7AEFD11
:1018E00007B0BDE8F083000080B586B040F28C10F0
:1018F00000220021C2F20000C4F20102532342F28E
:101900000F7CCDE90411CDE90211CDE90011C0E948
:101910000023C0E9021CC0E904118161FFF7F0F95E
:10192000002818BFFEF786FD4FF48050029040F269
:101930008C10C2F2000002A9FFF704FB002818BFB8
:10194000FEF778FD0020CDE9000040F28C10C2F2D5
:1019500000006946FFF78AF9002818BFFEF76AFD04
:1019600006B080BD10B58EB040F2D4100021C2F296
:1019700000004FF08042532340F2E7340D91CDE94F
:101980000B11CDE90911CDE90711CDE90511CDE91B
:101990000311CDE90111C0E90023C0E9021401617E
:1019A0008161FFF7ADF9002818BFFEF743FD4FF442
:1019B00080500A9040F2D410C2F200000AA9FFF74A
:1019C000C1FA002818BFFEF735FD40F2D410C2F26C
:1019D0000000FFF7A1FC002818BFFEF72BFD40F226
:1019E000D4100024C2F2000008A9CDE90844FFF792
:1019F0003DF9002818BFFEF71DFD4FF4FA70019461
:101A0000CDE9020440F2D410C2F2000001A9002284
:101A10000594FFF701FC002818BFFEF70BFD40F20C
:101A2000D410C2F2000001A90422FFF7F5FB002840
:101A300018BFFEF7FFFC40F2D410C2F20000FFF71F
:101A40008DFB0EB010BD000080B586B040F21C20AA
:101A500040F200420021C2F20000C4F2000253230F
:101A600040F2E73CCDE90411CDE90211CDE90011C6
:101A7000C0E90023C0E9021C01618161FFF740F960
:101A8000002818BFFEF7D6FC4FF48050029040F2B9
:101A90001C20C2F2000002A9FFF754FA002818BF68
:101AA000FEF7C8FC0020CDE9000040F21C20C2F285
:101AB00000006946FFF7DAF8002818BFFEF7BAFC05
:101AC00006B080BD10B58EB040F2642040F6000232
:101AD0000021C2F20000C4F200024FF6FF730D9124
:101AE000CDE90B11CDE90911CDE90711CDE90511BA
:101AF000CDE90311CDE90111C0E90021C0E90213CC
:101B000001618161FFF7FCF8002818BFFEF792FC25
:101B10004FF480500A9040F26420C2F200000AA9FB
:101B2000FFF710FA002818BFFEF784FC40F264208B
:101B3000C2F20000FFF748FD002818BFFEF77AFC4C
:101B400040F264200024C2F2000008A9CDE9084454
:101B5000FFF78CF8002818BFFEF76CFC6020CDE979
:101B6000010440F26420C2F2000001A900220394A3
:101B70000594FFF7DDFC002818BFFEF75BFC40F280
:101B80006420C2F20000FFF7E9FA0EB010BD0000B9
:101B900080B540F2AC2041F20001C2F20000C4F274
:101BA000010100234FF00C0C4FF4E13280E80E00ED
:101BB000C0E90333C0E905C3C361FFF7BFFD0028D7
:101BC00018BFFEF737FC80BD80B50020C4F20200CC
:101BD00008210022FEF700FD80BD000080B5002036
:101BE000C4F2020008210122FEF7F6FC80BD0000CD
:101BF000FEE70000FEE7000000F0070080F00703AA
:101C0000042B28BF04234FF0FF3C03380CFA03F3E6
:101C100038BF0020994381400CFA00F022EA00000E
:101C2000084370477047000010B540F25110C2F2EF
:101C300000000121017040F25010C2F2000001705A
:101C400040F25310C2F20000017040F25210C2F292
:101C50000000017040F29400C2F20000D0E90212CC
:101C600040F20030C2F20000C0E9001240F204016C
:101C7000C2F20001D1E9022140F26014C2F2000474
:101C8000C4E9002140F2F521C2F2000109780129DE
:101C900007D140F24C01C2F20001D1E90221C4E9AE
:101CA0000021D0E9000100F0F9FA00F013F8FFF785
:101CB00095FF00F017F8D4E9000100F0EFFA00F00A
:101CC00009F8FFF781FF00F00DF800F057FB10BD99
:101CD0007047000040F26420C2F2000000689621C4
:101CE0004163704740F26420C2F2000000684FF484
:101CF0008271416370470000B0B501380024B4EB35
:101D0000106F1CBF0120B0BD4EF21005CEF20005D1
:101D100068604FF0FF300F2100F09EFA0720AC60A2
:101D200028602046B0BD000080B5FEF761FC80BD94
:101D300070B592B006AC20463021FEF713FB0025AB
:101D400043F640000595CDE90355CDE901550095D1
:101D5000C4F202000168022641F08051016000686F
:101D600000F080500090009847F200000095C4F207
:101D70000000016866F38F310160006800F44040A4
:101D800000900098012006904FF4803007904FF4A7
:101D900080000D9019200E90A8200C96CDE90F061A
:101DA000042011902046FEF7B7FD78B90F20CDE949
:101DB00001064FF480500395CDE9040501A80221E6
:101DC000FEF79CFC002804BF12B070BDFEF732FB8A
:101DD0004EF68850CEF20000016841F470010160B7
:101DE0007047000080B540F28C10C2F20000FFF78F
:101DF0001BF980BD80B540F2D410C2F20000FFF79D
:101E000013F980BD80B540F21C20C2F20000FFF73C
:101E10000BF980BD80B540F26420C2F20000FFF7EC
:101E200003F980BD10B540F2FF7E0368C4F2000ED6
:101E300040F2000C7045C4F2010C0ADD40F60002CD
:101E4000C4F2000290420DD060450BD040F6004233
:101E500004E0B0F1804F05D040F20042C4F200022D
:101E6000904203D14A6823F0700313434FF6FF7288
:101E7000C4F20002904209DC704512DCB0F1804FE0
:101E800026D040F20042C4F200021FE044F2FF32CA
:101E9000C4F2010290420FDC604519D044F2000206
:101EA00012E040F60002C4F20002904210D040F668
:101EB0000042C4F2000209E044F60002C4F201024A
:101EC000904205D044F20042C4F20102904203D194
:101ED000CA6823F44073134323F080024B69D1F89E
:101EE00000E08C681A436045C462C0F828E002D163
:101EF0000969CCF83010016841F00401016001214A
:101F00004161026010BD000080B501F01F014FF07B
:101F1000010CD0F820E00CFA01F32EEA030303626F
:101F2000036A02FA01F11943016280BDD0F808C0CA
:101F300011432CF47F4C41EA032141EA0C018160FA
:101F400070470000826822F07002114341F00701DF
:101F50008160704770B5026A036A40F2000E23F098
:101F600001030362456883690C688E6823F073037C
:101F700022F00202C4F2010E43EA040C704542EA68
:101F8000060208D070450ED04560C0F818C04968F8
:101F90004163026270BDCB6822F00C0223F004039F
:101FA0001A437045F0D125F44073D1E905653343F8
:101FB0001D43E9E770B5026A036A40F2000E23F0A0
:101FC00010030362456883690C688E6823F4E64356
:101FD00022F02002C4F2010E43EA042C704542EACA
:101FE000061208D0704510D04560C0F818C0496886
:101FF0008163026270BDCB686FF0400422F0C002C2
:1020000004EA03131A437045EED125F44063D1E985
:10201000056543EA860343EA8505E5E770B5026A8C
:10202000036A40F2000E23F4807303624568C369BB
:102030000C688E6823F0730322F40072C4F2010E60
:1020400043EA040C704542EA062208D0704510D0DD
:102050004560C0F81CC04968C163026270BDCB68AE
:1020600040F2FF441B0222F44062A3431A4370452E
:10207000EED125F44053D1E9056543EA061343EA5E
:102080000515E5E7B0B5D0F820E0026A22F48052E9
:1020900002624468C3690A6823F4E6438D6843EA30
:1020A000022C00232EF40052C4F20103984242EAAB
:1020B000053304D14A6924F4804545EA821444601A
:1020C000C0F81CC0496801640362B0BDD0F820C0EC
:1020D000036A23F001030362836923F0F00343EAF8
:1020E00002122CF00A03194382610162704700005A
:1020F000D0F820C0036A23F010030362836923F43D
:10210000704343EA02322CF0A00343EA01118261DA
:102110000162704710B504460068D4E902C2236921
:10212000016921F4405111430161626943EA0C01E4
:10213000E3691143C268194349F20C639A4311439E
:10214000C1604169A26921F4407141F20043114329
:1021500040F48062C4F201039A42416102D1FEF769
:1021600095FB01E0FEF780FBE16963681922B1F598
:10217000004FA0FB02011CD15A00DB0FFEF77AF8DA
:1021800048F21F51C5F2EB11A0FB01235A096FF071
:10219000630302FB0300322303EBC000A0FB010139
:1021A0004FF4F87000EA111000EB0210C1F3421175
:1021B0001AE09A009B0FFEF75DF848F21F51C5F236
:1021C000EB11A0FB01235A096FF0630302FB03002C
:1021D000322303EB0010A0FB0101F02000EA5110B4
:1021E00000EB0210C1F3431122680843906010BD58
:1021F000816200218285C2854164222180F84210DB
:10220000016921B10168CA6842F48072CA6001683C
:10221000486940F001004861C86840F02002002091
:10222000CA607047FEE70000002848BF704700F012
:102230001F01012202FA01F14EF200124009CEF212
:10224000000242F8201070474EF60C50CEF200000B
:102250000068C0F3022070474EF6145300F00F02DE
:10226000CEF2000309011A4400F16043B0F1FF3FD0
:10227000C8BF03F564421170704700004EF60C5160
:10228000CEF200010A684FF6FF031A4060F30A22FB
:1022900042F0806040F0FD700860704744F62062B4
:1022A000904298BF914200D97047B0B540F26C1C83
:1022B000C2F2000CDCF80C2040F25413C2F200030E
:1022C0001A6040F20833C2F2000340F27C14186036
:1022D000C2F20004E368821AC81A002A4FF0000311
:1022E0004FF00001C8BF0123002840F2F72E8CF800
:1022F0000430C8BF0121012AC2F2000E2171A8BF1B
:10230000012808DA012A0ADB002808DC01218EF8FE
:10231000001000210FE001218EF800100BE00021D9
:102320000028C8BF012100250023012AB8BF0125CC
:1023300029408EF8003040F2F823C2F200031970F1
:102340004EF64F43002A48BF5242C4F6C4630028E9
:1023500048BF4042A2FB0325A0FB0302A80840F2AD
:10236000FD135843CCF8080090085843A0609EF82D
:10237000000000F049F8BDE8B040704780B500208B
:102380000021FFF78BFFFFF7A5FCFFF727FCFFF706
:10239000A9FC80BDFEF73AF9FFF7CAFCFFF750FA37
:1023A000FFF7F6FBFFF7DEFAFFF79EFAFFF74CFBAD
:1023B000FFF788FB40F28C10C2F20000FEF742FDEE
:1023C00040F2D410C2F20000FEF77AFD40F21C2069
:1023D000C2F20000FEF774FD40F26424C2F2000471
:1023E0002046FEF72FFD20460021FFF71FF940F29F
:1023F000AC2040F2F621C2F20000C2F2000101223C
:10240000FFF706FAFEE70000B0B50025C4F20205AA
:102410000C460246002828464FF0020118BF012250
:10242000FEF7DAF8002C18BF0124284604212246C2
:10243000FEF7D2F840F2D414C2F200042046002184
:10244000FEF79AFF20460421FEF796FFB0BD00007C
:1024500010B540F2D414C2F2000420460021FFF768
:102460000FF820460421FFF70BF810BDF1EE100A1B
:102470004FF6FF71C0F2C03120EA010040F0407019
:10248000E1EE100A704700000000000000000102A9
:10249000030406070809000000000102030400000D
:1024A000C024000800000020F0000000D001000857
:1024B000B0250008F000002020080000EC01000812
:1024C0000024F40050140000D84000005014000014
:1024D0005235000050140000042900006C20000058
:1024E000744000003A20000052350000A41F000094
:1024F000042900008E2B0000744000008E2B000089
:10250000523500008E2B000004290000A00F0000AF
:102510004C360000D4170000B83D00000C17000036
:10252000B42D00006C20000088450000A41F0000AE
:1025300084350000DC1E0000802500003C280000DF
:10254000F03C000010270000EC2C0000442F00009D
:10255000583400003A070000685B0000F2120000E7
:10256000FE5B0000AA1E0000945C0000942A00009C
:10257000F85C00007E360000F85C0000C409000032
:10258000420E00007C150000420E000034210000C5
:10259000420E0000EC2C0000A60E0000A438000043
:1025A0000A0F000001000000100000000000000001
:040000050800019559
:00000001FF
