:020000040800F2
:10000000300B00205D020008914D000849490008AE
:100010008D4D00089D1C00088D5F00080000000049
:10002000000000000000000000000000195200085D
:10003000ED1E000800000000054E00089552000863
:1000400077020008770200087702000877020008AC
:10005000770200087702000877020008770200089C
:10006000770200087702000877020008770200088C
:10007000770200087702000877020008770200087C
:10008000A11C0008770200087702000800000000A9
:1000900000000000000000000000000077020008DF
:1000A00077020008755300087702000877020008FD
:1000B0008553000895530008A553000877020008EF
:1000C000770200087702000877020008770200082C
:1000D000770200087702000877020008000000009D
:1000E000770200087702000877020008000000008D
:1000F000000000000000000000000000770200087F
:10010000000000007702000877020008770200086C
:1001100000000000000000000000000000000000DF
:100120007702000877020008B11C00087702000877
:10013000770200080000000000000000000000003E
:10014000000000000000000000000000770200082E
:10015000770200087702000877020008770200089B
:10016000770200087702000800000000000000008D
:10017000000000000000000000000000000000007F
:1001800000000000770200080000000000000000EE
:100190007702000800F002F800F04EF80AA090E89C
:1001A000000C82448344AAF10107DA4501D100F032
:1001B00043F8AFF2090EBAE80F0013F0010F18BFB1
:1001C000FB1A43F0010318474473000064730000F6
:1001D000103A24BF78C878C1FAD8520724BF30C873
:1001E00030C144BF04680C60704700000023002445
:1001F00000250026103A28BF78C1FBD8520728BF37
:1002000030C148BF0B6070471FB507F089F801F097
:1002100031F904000020002106F07AFE401C6060E5
:100220000020002106F05EFEE0600FBC00F014F834
:100230000FB41FBD10B510BD01F0EFF81146FFF768
:10024000E3FF06F039F801F0A3F903B4FFF7F2FF7A
:1002500003BC01F027FC000001F05CBC09488047AA
:1002600009480047FEE7FEE7FEE7FEE7FEE7FEE798
:10027000FEE7FEE7FEE7FEE704480549054A064BB0
:100280007047000061530008950100083005002008
:10029000300B0020300700203007002053EA020C0A
:1002A00000F069802DE9F04B4FF00006002B1FBFD6
:1002B000B3FA83F503FA05F424FA05F65E4012BF9B
:1002C0001643B2FA82F502FA05F4C5F120051EBF05
:1002D00022FA05FC44EA0C04203556EA044C4FEAA5
:1002E000144418BF641C4FF000084FF000099042FE
:1002F00071EB030C39D3002919BFB1FA81F701FA68
:1003000007F6B0FA80F700FA07F6C7F120071EBF1C
:1003100020FA07FC46EA0C062037B6FBF4FCA7EBF4
:100320000507103F07F01F0BCBF120062CFA06F64D
:100330000CFA0BFB44BFB3460026202FA4BF5E4639
:100340004FF0000B5BEA060C08BF4FF0010B19EBF6
:100350000B0948EB0608ABFB027C06FB02CC0BFB4F
:1003600003CCC01B71EB0C01C1E70B4602464146B2
:100370004846BDE8F08B13B5084318BF4FF0FF3077
:100380000146AFF30080BDE81C4070470FB400B5D4
:100390008DB010A9099000910B904FF0FF300A909A
:1003A00000200C90064878440690064878446A4637
:1003B00007900F9909A800F0F9F90DB05DF814FB4A
:1003C000230400003B0400004FF0000200B5134678
:1003D00094469646203922BFA0E80C50A0E80C5065
:1003E000B1F12001BFF4F7AF090728BFA0E80C5016
:1003F00048BF0CC05DF804EB890028BF40F8042B0F
:1004000008BF704748BF20F8022B11F0804F18BF7B
:1004100000F8012B70477047704770472DE9FF4F78
:100420001C4691464FF0FF3581B000218A46884630
:10043000D4E90167A16902986D1C8847216A834647
:1004400088470028F6D1BBF1FF3F0CD0002F26F4DF
:10045000C0661ADD700615D5BBF12B0F0AD0BBF1B3
:100460002D0F0FD104E04FF0FF3005B0BDE8F08F45
:1004700046F48066A16902986D1C88477F1E8346FA
:10048000002F02DDBBF1300F03D0B9F1000F2AD0ED
:1004900025E0A1696D1C02987F1E46F4007688470E
:1004A000002F834605DDBBF1780F06D0BBF1580F56
:1004B00003D0B9F1000F10D011E0B9F1000F02D054
:1004C000B9F1100F0BD1A1696D1C02987F1E26F4A3
:1004D000007688478346102000E0082081464FEAD6
:1004E000E970009017E00A20F8E74346AAFB0928C4
:1004F000DDF800C07F1E03FB098046F4007605F19D
:1005000001050AFB0C0112EB0B0A029841EBEB7898
:10051000A16988478346002F06DD4946584600F00A
:10052000E4FA5FEA000BE0D5E16902988847B0057C
:1005300002D46FF0010098E7F00718D1700610D5CB
:100540005146700505D50023D1EB030163EB08028A
:1005500000E042462068031D23600068C0E90012E5
:1005600005E02068011D21600068C0E900A8284658
:100570007BE72DE9FF5F1D464FF0FF3B91464FF0B3
:1005800000085F46D5E90146A96901987F1C8847A4
:10059000296A824688470028F6D1BAF1FF3F0CD07D
:1005A000002E24F4C06419DD600614D5BAF12B0FB7
:1005B00009D0BAF12D0F0ED103E0584604B0BDE8C2
:1005C000F09F44F48064A96901987F1C8847761ED7
:1005D0008246002E02DDBAF1300F03D0B9F1000FD0
:1005E00026D032E0A969761E01987F1C44F400747D
:1005F0008847002E824605DDBAF1780F06D0BAF1A1
:10060000580F03D0B9F1000F10D01EE0B9F1000F60
:1006100002D0B9F1100F18D1A969761E01987F1C7C
:1006200024F4007488478246102002E0082000E08D
:100630000A20814609E0A96908FB0908761E01988D
:100640007F1C44F4007488478246002E05DD49462D
:10065000504600F04AFA0028EDDAE9690198884727
:10066000A00502D46FF00100A8E7E00725D16006DD
:1006700013D5600502D5C8F1000000E040462968A6
:100680000A1D2A600968220501D5087015E02207B5
:1006900001D5088011E008600FE02868011D29607D
:1006A0000068210502D580F8008006E0210702D508
:1006B000A0F8008001E0C0F8008038467EE72DE910
:1006C000FF5F4FF000089946144646469169D2E90B
:1006D00001A7DDF838B001988847054659EA0B00B4
:1006E00005D009E0A1690198761C88470546216A72
:1006F000284688470028F5D1681C03D05FEACA70F5
:1007000005D015E04FF0FF3004B0BDE8F09F206841
:10071000011D2160D0F800800AE05FEACA7001D1B3
:1007200008F8015BA169761C01987F1E8847054681
:10073000002F1ADD681C18D0B9F1000F0DD0E81792
:1007400005EBD060421120F01F0059F822102A1A40
:10075000012090400142E0D107E0BBF1000FDCD165
:100760002846216A88470028D7D0E1690198884740
:10077000BBF1000F07D1002E05DD5FEACA7002D180
:10078000002188F80010A068B84203DDBBF1000F1B
:1007900003D017B16FF00100B6E73046B4E70000B0
:1007A000026811441378016018467047D16005490A
:1007B0007944516104497944116200211161114663
:1007C00000F0A2B9EDFFFFFF1F030000426842B135
:1007D000016811F8013B23B1521EC0E9001218460E
:1007E00070470121C160881E704742685AB1C368D2
:1007F000016843B983688B4205D0491E521CC0E989
:100800000012002070474FF0FF3070472DE9FF4F76
:100810004FF000089A461446C146464683B0D2E9D6
:1008200001B7CDF80080CDF804809169049888471D
:10083000109905465AEA010005D009E0A16904981B
:10084000761C88470546216A284688470028F5D146
:10085000681C03D05FEACB7005D02AE04FF0FF3070
:1008600007B0BDE8F08F2068011D2160D0F800803E
:100870001FE002A86A46E9B200F08BFD411C07D0D8
:10088000801C09D04FF000095FEACB7007D00AE066
:10089000E169049888473EE04FF0010904E0BDF8A3
:1008A000081028F8021B7F1EA1690498761C88474F
:1008B0000546002F1ADD681C18D0BAF1000F0DD0C4
:1008C000E81705EBD060421120F01F005AF8221003
:1008D0002A1A012090400142CBD107E0109800284D
:1008E000C7D12846216A88470028C2D0E169049808
:1008F0008847B9F1000F0ED1109830B9002E04DDF1
:100900005FEACB7001D1A8F80000A068B84202DD10
:10091000109818B117B16FF00100A1E730469FE7BA
:100920002DE9FF4F4FF000089B461446454683B023
:10093000D2E90196CDF80080CDF804809169DDF808
:1009400048A00498884707465BEA0A0005D009E0FA
:10095000A16904986D1C88470746216A3846884774
:100960000028F5D1781C03D05FEAC97005D01BE0E0
:100970004FF0FF3007B0BDE8F08F2068011D216007
:10098000D0F8008010E05FEAC97007D16A4640469F
:10099000B9B200F01EFD411C31D08044A1696D1C2C
:1009A0000498761E88470746002E14DD781C12D066
:1009B000BBF1000007D03B46DDE9101200F0DAFC85
:1009C0000028E0D107E0BAF1000FDCD13846216AF7
:1009D00088470028D7D0E16904988847BAF1000F0A
:1009E00006D1002D04DD5FEAC97001D188F800004E
:1009F000A068B04203DDBAF1000F03D016B16FF06A
:100A00000100B7E72846B5E72DE9FF5F9B4614468E
:100A100000273D469169D2E90196DDF840A0019892
:100A2000884780465BEA0A0005D009E0A169019881
:100A30006D1C88478046216A404688470028F5D1CA
:100A4000B8F1FF3F03D05FEAC97005D014E04FF062
:100A5000FF3004B0BDE8F09F2068011D21600768E9
:100A60000AE05FEAC97001D127F8028BA1696D1C09
:100A70000198761E88478046002E15DDB8F1FF3FAD
:100A800012D0BBF1000007D04346DDE90E1200F0A2
:100A900071FC0028E5D107E0BAF1000FE1D1404632
:100AA000216A88470028DCD0E16901988847BAF1BB
:100AB000000F05D1002D03DD5FEAC97000D1388039
:100AC000A068B04203DDBAF1000F03D016B16FF099
:100AD0000100BEE72846BCE710B5044600F0C2FCA2
:100AE0000068005D00F0010010BD3A2800D23038E7
:100AF00020F02002412A01D3A2F13700884201D31D
:100B00004FF0FF30704700002DE9F34F4FF0000A1F
:100B10000C4656468DB001200C9001F10C000B9054
:100B200062690B9801219047051E2DD0252D2CD0F0
:100B3000216A8847C0B162690B9801219047216AF8
:100B400088470028F7D16269411E0B98904700E062
:100B5000761CA1690D988847216A88470028F7D13B
:100B6000E1690D988847DBE7A1690D988847A8429D
:100B7000074601D1761CD3E7E1690D9888477F1CB1
:100B800002D1BAF1000F6FD06BE162690B980027B8
:100B90003D46394690472A2804D162690B980121C5
:100BA00090470125DFF8D08262690B9801219047B8
:100BB000A0F130010A290AD24745E5DC07EB87019D
:100BC00000EB4107303FDFD445F01005ECE7E906C4
:100BD00001D46FF000476C280AD04C2814D0682844
:100BE00015D06A280DD074281CD07A281AD01DE0A0
:100BF00062690B98012190476C2802D045F00405EA
:100C000014E045F002050DE045F020050AE06269B8
:100C10000B9801219047682802D045F0080505E0AF
:100C200045F4006562690B9801219047C4E90157BA
:100C300065283DD019DC58287AD00CDC452837D0FF
:100C400004DC252826D041289ED131E046282FD02B
:100C5000472899D12CE05B2877D0612828D06328D9
:100C60007CD0642823D15AE0F6E06F2848D008DC15
:100C700066281DD067281BD0692821D06E2816D180
:100C800027E0702845D0732868D0752847D0782889
:100C90000DD14DE0A1690D988847252805463FF400
:100CA00069AFE1690D9888476D1C3FF46AAFD8E0E1
:100CB0000D9923466A466FF0010006F0A6FBC5E0D9
:100CC00045F0400023464FF000026060A80736D48C
:100CD0003EE0E8077FF447AF2068011D216000680F
:100CE000290501D506701BE7290701D5068017E7FE
:100CF000A90703D5F117C0E9006111E706600FE706
:100D000045F0400023464FF008026060A80716D463
:100D10001EE040F60E0125EA0100606016E045F095
:100D2000400023464FF00A026060A80707D40FE096
:100D300045F040006060A80708D5234610220D99B1
:100D40006FF00100FFF76AFB80E007E01022234606
:100D50000D996FF00100FFF70CFC77E04FF00009F0
:100D600063284F46C8464B46CB4602D05B2806D088
:100D700038E0E80601D40120A060012732E0626972
:100D8000D4F80CB00B98012190475E2807D14FF0A2
:100D9000010949466269D4F80CB00B989047216963
:100DA00039B900210A4603AB43F82120491C082920
:100DB000FADBD8B3216949B308F1010862690B98DD
:100DC000012190475D28F4D1B9F1000F09D000202E
:100DD00003A951F82020D24341F82020401C0828C4
:100DE000F7DB03AB2069002820794FEA40701ED062
:100DF0005B462246CDF80080CDE901970D99002889
:100E00006FF0010020DAFFF7FFFD1FE0C11703AA12
:100E100000EBD1614B1121F01F0102EB8302411A5B
:100E200013680120884003431360C7E719E00D9958
:100E3000224600286FF00100009702DAFFF7E6FC77
:100E400004E0FFF73CFC01E0FFF76AFD00280ADA46
:100E5000401C06D10C9820B14FF0FF300FB0BDE818
:100E6000F08F5046FAE7E90701D10AF1010A06447A
:100E700000200C9054E60000CCCCCC0C2DE9FF4FA8
:100E800006468BB00878FF2806D0491C2D2805D0CF
:100E900000244FF0000908E000200CE00124F8E7EE
:100EA00009EB8903491C00EB43090878FF28F7D1B7
:100EB00014B1C9F100008146107800252C46AA46DD
:100EC00029462D2801D02B2804D1521C2D2813D0BF
:100ED000002082468B461078FF280FD04FF0000C80
:100EE0000A21521CA5FB017804FB018105FB0C11B2
:100EF000C5194BEB0104EEE70120EAE700210846A3
:100F00004FF00000BAF1000F02D000EB8000400863
:100F1000C0F38157012F01DD4FF0FF370E9955EADD
:100F2000040009EB01080BD04FF0020918F5FA7F15
:100F300016DA4FEACA70002F706008DD012007E062
:100F40004FEACA70C6E900B00FB0BDE8F08F0020CC
:100F5000306000F093FAC0F800901821084616E0BF
:100F6000B8F5FA7F18DD002F02DAF748784401E07F
:100F7000F6487844D0E90010C6E9001040EACA708B
:100F8000706000F07BFAC0F80090142108460FB0A2
:100F9000BDE8F04F06F0D6B9002108464FF000003A
:100FA000B8F10001099002DAC7F1000200E03A4608
:100FB00001DAC8F1000106A800F078FA06AB93E860
:100FC000070003AB83E8070044F23E005BEA04013C
:100FD0000090584604D144F21E012C465D46009113
:100FE000210C0904014306D10099240444EA154464
:100FF0002D041039009104F07F41014306D100997E
:10100000240244EA15642D020839009104F070416D
:10101000014306D10099240144EA15742D01091FEA
:10102000009104F04041014306D10099A40044EA34
:101030009574AD00891E009104F00041084304D16D
:1010400000986D196441401E00904FF001033A462C
:101050006846B8F1000FCDE9014503A902DD05F0AE
:10106000A2FC01E005F075FCBAF1000F04460D4644
:1010700001D084F00044002108464FF00000099997
:1010800040F2FF77484010F00C0F07D124F00040E9
:10109000284303D0C4F30A50B84212D100F0EEF94D
:1010A000C0F80090C4F30A50B8420AD1A848784466
:1010B000D0E90010C6E9001004F000410843706058
:1010C00042E7C6E900543FE72DE9FF4F1F464FF0C6
:1010D000000A4FF0FF38454691B0D7E90146CDF8F8
:1010E0003CA000F0C7F9C0680168405C1090B96985
:1010F00012986D1C8847396A814688470028F6D1C6
:10110000B9F1FF3F0AD0002E24F4D06411DDB9F10B
:101110002B0F08D0B9F12D0F0BD102E0404615B0CE
:1011200013E744F48064B96912986D1C8847761EF1
:101130008146600504A901D52D2000E02B20002E5A
:1011400001F1010B0DF130088DF810003FDDB9F110
:10115000690F08D0B9F1490F05D0B9F16E0F02D06F
:10116000B9F14E0F1CD13B4601A8009580E8500212
:10117000DDE912126FF0020006F04BF9C11CCED16E
:101180000EE0B96912986D1C884781461398761E47
:1011900044F4007405600F98401C002E0F9016DD7B
:1011A000B9F1300FEDD0B9F1780F02D0B9F1580F85
:1011B0000DD10F9801280AD13B46CDE90054DDE955
:1011C0001212001F029606F022F9C11CA7D1109935
:1011D00089453ED144F0800406E01399681CAAF1C9
:1011E000010A44F400740860B9696D1C1298761EF7
:1011F000884730288146F0D02BE01099894505D1E9
:10120000200603D4761E44F0800418E0484605F01A
:101210001AFE08B3761E0DF123029345A9F13000A2
:1012200044F4007406D20BF8010B200607D5AAF18E
:10123000010003E0200602D40AF101008246A00565
:1012400002D51399681C0860B96912986D1C88470B
:101250008146002ED1DC53E0002E51DDB9F1650F3F
:1012600002D0B9F1450F4BD1A00549D5B9696D1C24
:101270001298761E24F440748847002E81460CDDB7
:101280002B2804D0B9F12D0F07D144F48074B9692B
:1012900012986D1C8847761E8146E00501D52D21E8
:1012A00000E02B2108F8011BCDF8008021E0761E1C
:1012B0000DF13901884544F400740CD2A9F13000D5
:1012C00010F0FF0088F8000002D10099884509D984
:1012D00008F1010806E0E00501D51E4801E042F2F0
:1012E0000F708246B96912986D1C88478146139821
:1012F0000560002E04DD484605F0A5FD0028D6D186
:10130000F96912988847FF2053468BF8000088F847
:10131000000000200A900B9004AA0CA90AA8FFF76D
:10132000ADFDA00502D46FF00100F8E614F0240F23
:1013300012D0E0071CD13868DDE90A12031D3B60BA
:101340000068C0E9001213E0C4650000B665000043
:101350007A640000F1D8FFFF0AA9684605F060FD35
:10136000E00705D13868009A011D39600068026005
:101370002846D4E610B508E030F8024B9C4204D170
:101380000AB1002010BD012010BD491EF4D2104644
:1013900010BDF8B516460C46054600F063F8036824
:1013A00093F80101012804D0185D78B101202C8048
:1013B000F8BDD3F803013246214603F20313C718E0
:1013C00068460023B84700992980F8BD4FF0FF30E8
:1013D000F8BD2DE9F04116460C46054600F042F8EE
:1013E000036893F80101012807D0FF2C12D8185D7B
:1013F00080B101202C70BDE8F081D3F8070132469E
:10140000214603F20713C7182846BC46BDE8F04141
:10141000002360474FF0FF30EDE7754600F0C2F85B
:10142000AE4605006946534620F00700854618B0D1
:1014300020B5FEF721FFBDE820404FF000064FF039
:1014400000074FF000084FF0000BAC46ACE8C009B5
:10145000ACE8C009ACE8C009ACE8C00921F007015C
:101460008D46704710B500F005F8001D10BD00BF97
:10147000A15A00000048704728010020004870472A
:1014800008010020B2F120030AD5C2F1200301FABD
:1014900002F120FA03F341EA030100FA02F0704777
:1014A00000FA03F14FF00000704700002DE9F0470B
:1014B000814616468AB0354878440DC88DE80D003F
:1014C00032487844801C03AC0DC884E80D0041F616
:1014D0009B300844372190FBF1F290FBF1F5A5F128
:1014E000800501FB12041B3C02D56442012000E090
:1014F0000020DFF898A080460027FA44AAF1BE0A2F
:101500000EE0E0070AD03246684607EB47010123A8
:101510000AEB810105F032FA8DE8070064107F1CA8
:10152000002CEED1194F7F44AE3F19E0E80715D0EB
:1015300007EB04100DF1180A90E80E008AE80E007F
:10154000C068F04201D1981908903246012306A9DB
:1015500003A805F013FA03AB83E807006D10641CC1
:10156000002DE3D14FF0010332466946B8F1000F78
:1015700003A802D005F0D8F901E005F0FFF9C9E9A8
:101580000001C9F808200AB0BDE8F0870860000033
:1015900010B50446AFF300802046BDE81040FEF7CA
:1015A00054BE0000004870470801002010B5FFF746
:1015B00065FF006810BD10B50446FFF75FFF0460CB
:1015C00010BD00002DE9FF4F1F464FF03C0987B0CA
:1015D0004FF00042DDE9141001F10108DDF858A0D8
:1015E00002EA4050039000200590834605460446D9
:1015F0000490B969461E08988847AAF1010A02902A
:10160000BAF1000F3BDD02982E2815D01021FFF70C
:101610006CFA00282EDB4FF0010B0599014317D01F
:10162000B9F1000F0BDB4A46C117FFF72BFF05434B
:101630000C43A9F1040905E0012004900BE008B176
:1016400045F0010501200590049820B9361D02E0FF
:10165000049800B1361FB969089808F10108884755
:10166000BBF1000FAAF1010A0290C9D00999C1F893
:101670000080C5E70298702808D0502806D0F96984
:1016800008988847BBF1000F14D04FE0002002906B
:101690000120BBF1000F049009D0B969089808F146
:1016A00001088847AAF10109B9F1000F07DCF969BF
:1016B000089888476FF001000BB0BDE8F08F2B2829
:1016C00004D02D280CD14FF0FF300490B969089850
:1016D00008F101088847A9F10109B9F1000FE6DD19
:1016E000411CE4D00A21FFF700FA0028DFDB029951
:1016F00008F1010801EB810100EB41000290B9699A
:10170000089888470A21FFF7F0F9099AA9F1010919
:10171000B9F1000FC2F8008001DD0028E7DAF969AD
:10172000089888470499029800FB016655EA04006E
:1017300004D004F04041090002D006E0039898E08C
:10174000A40044EA9574AD00B61E04F00041080000
:1017500002D16D196441761E159810F0240F03D044
:101760004FF00B095C4803E04FF028096FF07D0053
:101770008246564507DAAAEB06018944B9F1410FC2
:1017800001DD4FF0410901200021A9F10102FFF71D
:1017900079FE024628400B462140084301D0012132
:1017A00000E00021501E029143F1FF31284021400A
:1017B000084301D0012000E000200299834651EA4D
:1017C0000B014FD0002108464FF00000039900F4B0
:1017D000400039B100EB80004FF4400100EBD070C5
:1017E00001EA60008015012802DD4FF0FF3000E0C3
:1017F00013D0401C36D0029860B3BBF1000F0CD15F
:101800004A4601200021FFF73DFE284021400843C1
:1018100001D0012000E00020E0B101204A46002173
:10182000FFF730FE034640190A4661412D1A8C41EC
:1018300011D3B9F1400F09DD159810F0240F02D033
:10184000AAF1340603E0AAF1170600E0761C002591
:101850004FF0004406E05B1E42F1FF3220EA030530
:1018600021EA0204CAF10100B04206DA1B490398DA
:1018700008430190002000900EE0039AC4F3D321A6
:10188000E80A0A43164940EA44500A433146CDE982
:101890000002684605F0CDFA159810F0240F0BD021
:1018A0001598C00715D13868DDE90012031D3B60AB
:1018B0000068C0E900120CE002A8694605F0B0FA21
:1018C0001598C00705D13868029A011D3960006873
:1018D00002604046F0E6000002FCFFFF0000F07FDF
:1018E0000000F03F2DE9FF4F92461D4685B04FF0B6
:1018F0000041DDE9124BDDE914727F1E01EA4B5015
:10190000414940F0FF4940EA0108002122F020004F
:101910004928049102D04E2828D04CE03BA0012653
:1019200007C88DE80700A9690698641C88477F1ED0
:10193000014606D41DF8060018B121F020018142AD
:101940000BD0E96906988847032E34D0082E32D090
:101950006FF0010009B0BDE8F08F761C032E01D0B6
:10196000082EE0D1601CCAF80000DCE7A9690698DF
:10197000641C88477F1E2AD420F02000412826D1ED
:10198000A9690698641C88477F1E20D420F0200097
:101990004E281CD1A9690698641C88477F1E48F40C
:1019A000002849F48009CAF8004001D4282806D04C
:1019B000E969069888475FEACB7012D022E0A969EE
:1019C0000698641C88477F1E01D4002803DAE96961
:1019D00006988847BCE72928F1D1641CCAF8004062
:1019E000E9E71BF0240F07D028680499031D2B603A
:1019F0000068C0E9001805E02868021D2A60006838
:101A0000C0F800902046A5E70000F07F494E464907
:101A10004E49545900000000002801D000F042B89F
:101A2000704700000000000030B44FF0013C50F857
:101A3000042B51F8043BCCFA52F4D51A20D1FCB94E
:101A400050F8042B51F8043BCCFA52F4D51A17D1B4
:101A5000B4B950F8042B51F8043BCCFA52F4D51A1F
:101A60000ED16CB950F8042B51F8043BCCFA52F467
:101A7000D51A05D1002CDAD030BC4FF000007047E9
:101A800029BAB1FA81F111F01801D1F12000844096
:101A9000F2D1CA40CB4012F0FF0213F0FF0330BC7A
:101AA000D01A704701491820ABBEFEE7260002009D
:101AB00070B505460C460A2000E06D1C00F011F8D8
:101AC00035B128780028F8D102E0641C00F009F84C
:101AD00014B120780028F8D1BDE870400A20AFF397
:101AE000008008B569468DF800000320ABBE08BD34
:101AF00070470246C91C21F00301D2E900031B1AFA
:101B00008B4201D2002070470144C91D21F007011A
:101B1000116070472DE9F34F83B000274FF48074B4
:101B2000BA4603A821468DF80070FFF7E2FF5FEA8E
:101B3000000801D100F0AAF82146404600F070F8F4
:101B4000060009D04FF0010B4546C14616F8014B7F
:101B50008FB15C2C16D01CE008F108004146C8F893
:101B600000000020C8F80400D8F8004020700120D0
:101B700005B0BDE8F08F222C01D0272C0FD12746CD
:101B8000BA462CE03078222807D05C2805D02728D8
:101B900003D0BC4203D1002721E0761C04464CB19F
:101BA0002FB9202C06D0A4F10900042802D905F889
:101BB000014BCBE74D4502D1BAF1000F0FD0524691
:101BC0004946002005F8010B6846AFF300809DF8F8
:101BD000000070B14D464FF0000A0BF1010B002CD4
:101BE000B4D14FEA8B0103A8FFF783FF040002D0B2
:101BF00004E0A946EFE7002000F048F80020424644
:101C0000C4F8008005E012F8011B11B9401C44F82B
:101C10002020AA42F7D3002144F820102146A7E74C
:101C20001CB50446CDE9000169461520ABBE08B1DC
:101C300000201CBD20461CBD7047704710B5012810
:101C400005D0002103A0FFF733FF012010BD09A13B
:101C5000F8E7000053494752544D454D3A204F751F
:101C600074206F662068656170206D656D6F727994
:101C7000000000003A2048656170206D656D6F724C
:101C80007920636F727275707465640010B5FFF728
:101C9000D5FFBDE81040FFF7BFBE0000FFE7FEE73D
:101CA00080B540F22420C2F2000000F085F980BD2A
:101CB00080B540F2C410C2F2000000F07DF980BD92
:101CC00082B001900198007810384AF6AB21CAF62C
:101CD000AA21A0FB010109090091009947F2F442F1
:101CE000C0F60002515C019AD1650099042907D31E
:101CF000FFE701980168042262F30901816506E0AB
:101D00000198016840F2FF3291438165FFE7019835
:101D1000806D02B07047000086B0059000208DF8FD
:101D200013000598806A039005988069002823D1E4
:101D3000FFE70398032802901CD80299DFE801F01E
:101D4000020E0219059890F82F00C007002804D051
:101D5000FFE701208DF81300FFE70CE00598C06A4B
:101D6000B0F1C07F04D1FFE701208DF81300FFE739
:101D700001E000E0FFE747E005988069B0F5005F0B
:101D800026D1FFE70398032801901FD80199DFE8C7
:101D900001F00206021201208DF8130017E00598E9
:101DA00090F82F00C007002804D0FFE701208DF82D
:101DB0001300FFE70BE00598C06AB0F1C07F04D1C3
:101DC000FFE701208DF81300FFE700E0FFE71AE0CE
:101DD00003980328009004D3FFE70098032804D059
:101DE0000FE001208DF813000CE0059890F82F000B
:101DF000C007002804D0FFE701208DF81300FFE79B
:101E000000E0FFE7FFE7FFE79DF8130006B070472B
:101E100084B00390029101920093039800680168D6
:101E200021F48021016000980399096848600398B3
:101E30008068402809D1FFE7019803990968886004
:101E4000029803990968C86008E002980399096834
:101E50008860019803990968C860FFE704B070477B
:101E600081B000904EF6FC50CEF20000016841F0C7
:101E70008071016041F20400CEF200000021016097
:101E800041F20000CEF20000026842F0010202605E
:101E9000009844F24022C0F20F02504340F2681210
:101EA000C2F200021060106844F6D353C1F262031C
:101EB000A0FB03039B0940F26C1CC2F2000CCCF89F
:101EC000003012684DF68363C4F21B33A2FB032378
:101ED0009B0C40F2701CC2F2000CCCF8003040F2B7
:101EE0007413C2F20003196001B07047704700001C
:101EF0002DE9F0418CB0DDF850C0DDF84CE0129CCB
:101F00001D4616460F4680468DF82F008DF82E1080
:101F1000ADF82C208DF82B308DF82AE08DF829C0F3
:101F2000002009900890079006909DF82F008DF8EA
:101F30001800FD208DF819009DF82E008DF81A006C
:101F40009DF82D008DF81B009DF82C008DF81C00CD
:101F50009DF82B008DF81D009DF84B008DF81E009C
:101F6000BDF84A008DF81F001298000A8DF8200075
:101F700012988DF821009DF82A0000F001008DF8DC
:101F800022009DF8290000F001008DF823006B204D
:101F90008DF8240006A80D21059404950396029758
:101FA000CDF8048004F04AFA0CB0BDE8F0810000DE
:101FB00072B6FFE7FEE7000080B586B0059000200E
:101FC000039040F20000C2F20000006848F2B51130
:101FD000C1F64E31A0FB0101890A02910599896D74
:101FE00001910199096804910499059AD26DD14033
:101FF000090700291BD5FFE705980068006840071E
:10200000002813D5FFE705980068016821F0040156
:1020100001600598C06D082101FA00F001998860FF
:102020000598416D41F001014165FFE7FFE7049824
:102030000599C96DC840C007002815D0FFE705986D
:1020400000684069000600280DD5FFE70598C06DBF
:10205000012101FA00F0019988600598416D41F075
:1020600002014165FFE7FFE704980599C96DC84083
:102070004007002815D5FFE705980068006880072D
:1020800000280DD5FFE70598C06D042101FA00F086
:10209000019988600598416D41F004014165FFE7B1
:1020A000FFE704980599C96DC840C00600284BD5C4
:1020B000FFE70598006800680007002843D5FFE7A0
:1020C0000598C06D102101FA00F00199886005980B
:1020D00000680068400300281CD5FFE705980068E9
:1020E0000068000300280AD4FFE70598006C002868
:1020F00004D0FFE70598016C8847FFE709E00598E1
:10210000806C002804D0FFE70598816C8847FFE7C2
:10211000FFE717E0059800680068C005002807D4AD
:10212000FFE705980068016821F008010160FFE7FA
:102130000598006C002804D0FFE70598016C8847DB
:10214000FFE7FFE7FFE7FFE704980599C96DC8407F
:102150008006002840F19580FFE705980068006838
:10216000C006002840F18C80FFE70598C06D202153
:1021700001FA00F001998860059890F8350005286B
:1021800038D1FFE705980068016821F01601016069
:1021900005980068416921F0800141610598006C53
:1021A000002805D1FFE70598806C002807D0FFE7DD
:1021B00005980068016821F008010160FFE70598B3
:1021C000C06D3F2101FA00F0019988600598012156
:1021D00080F83510FFE70598002180F83410FFE7FC
:1021E0000598006D002804D0FFE70598016D884729
:1021F000FFE781E0059800680068400300281CD5CF
:10220000FFE7059800680068000300280AD4FFE78C
:102210000598406C002804D0FFE70598416C88477A
:10222000FFE709E00598C06B002804D0FFE7059898
:10223000C16B8847FFE7FFE721E005980068006869
:10224000C005002811D4FFE705980068016821F057
:10225000100101600598012180F83510FFE705980D
:10226000002180F83410FFE7FFE70598C06B0028D5
:1022700004D0FFE70598C16B8847FFE7FFE7FFE75A
:10228000FFE70598406D002836D0FFE70598406DC0
:10229000C007002826D0FFE70598052180F83510F3
:1022A00005980068016821F001010160FFE70398CB
:1022B000013003900299884201D9FFE707E0FFE768
:1022C000059800680068C0070028F0D1FFE705986E
:1022D000012180F83510FFE70598002180F83410BF
:1022E000FFE7FFE70598C06C002804D0FFE70598DA
:1022F000C16C8847FFE7FFE706B080BD80B586B0B8
:1023000004900020039000F0EBFA0290049800285B
:1023100004D1FFE701208DF81700A7E00498406A78
:10232000002801D0FFE7FFE70498022180F835106C
:10233000FFE70498002180F83410FFE70498006854
:10234000016821F001010160FFE70498006800685E
:10235000C007002812D0FFE700F0C2FA0299401A25
:1023600006280AD3FFE70498202141650498032139
:1023700080F835108DF8171078E0E6E704980068CB
:1023800000680390039848F23F01CFF21001084023
:102390000390049841688268C368D0F810C0114364
:1023A000194341EA0C014269114382691143C26930
:1023B0001143006A08430399084303900498406A54
:1023C000042808D1FFE70498C16A006B0843039909
:1023D00008430390FFE7039804990968086004988C
:1023E000006840690390039820F007000390049868
:1023F000406A0399084303900498406A04281CD15A
:10240000FFE70498806A0399084303900498C06A20
:10241000002811D0FFE70498FFF77EFC00280AD0BF
:10242000FFE70498402141650498012180F83510A8
:102430008DF817101AE0FFE7FFE703980499096881
:1024400048610498FFF73CFC01900498C06D3F215F
:1024500001FA00F001998860049800214165049810
:10246000012280F835208DF81710FFE79DF817003E
:1024700006B080BD80B588B00690059104920393A4
:1024800000208DF80B000698806D0190FFE70698FC
:1024900090F83400012804D1FFE702208DF81F00D6
:1024A00047E00698012180F83410FFE7FFE706981F
:1024B00090F8350001282DD1FFE70698022180F819
:1024C000351006980021416506980599049A039BEA
:1024D000FFF79EFC0698C06D3F2101FA00F00199BC
:1024E000886006980068016841F01601016006984E
:1024F000006C002807D0FFE706980068016841F0EB
:1025000008010160FFE706980068016841F00101D9
:10251000016009E0FFE70698002180F83410FFE72A
:1025200002208DF80B00FFE79DF80B008DF81F00CF
:10253000FFE79DF81F0008B080BD00008BB00A9037
:10254000099100200790069005900890FFE70898F1
:102550000F2800F2A881FFE70898012101FA00F096
:10256000079009980068079908400690069807990F
:10257000884240F09381FFE70998406800F003002B
:10258000012807D0FFE70998406800F003000228FF
:102590002FD1FFE70A988068059008984000032132
:1025A00001FA00F0059921EA000005900998C06839
:1025B00008994900884005990843059005980A99AB
:1025C00088600A98406805900898012101FA00F097
:1025D000059921EA0000059009984068C0F30010B1
:1025E0000899884005990843059005980A9948601C
:1025F000FFE70998406800F00300032818D0FFE7C0
:102600000A98C068059008984000032101FA00F07C
:10261000059921EA00000590099880680899490009
:10262000884005990843059005980A99C860FFE716
:102630000998406800F00300022826D1FFE70A98B5
:1026400008996FF0030202EA51010844006A0590FC
:10265000089800F0070080000F2101FA00F00599AA
:1026600021EA0000059009980069089901F0070126
:102670008900884005990843059005980A99089BA8
:1026800002EA530211440862FFE70A9800680590C5
:1026900008984000032101FA00F0059921EA0000A2
:1026A00005900998406800F00300089949008840A7
:1026B00005990843059005980A990860099880795A
:1026C0008007002800F0E980FFE7FFE70020049082
:1026D00043F64400C4F20200016841F48041016005
:1026E000006800F4804004900498FFE7089820F008
:1026F000030043F60801C4F2010140580590089810
:1027000000F0030080000F2101FA00F0059921EA92
:10271000000005900A980021C4F20201884203D10A
:10272000FFE70020039034E00A9840F20041C4F231
:102730000201884203D1FFE70120029026E00A98B7
:1027400040F60001C4F20201884203D1FFE70220F3
:10275000019018E00A9840F60041C4F20201884254
:1027600003D1FFE7032000900AE00A9841F200013C
:10277000C4F202010722884208BF04220092FFE748
:1027800000980190FFE701980290FFE702980390FC
:10279000FFE70398C0B2089901F00301890088405F
:1027A0000599084305900598089921F0030143F61F
:1027B0000802C4F20102885043F60840C4F2010046
:1027C000006805900698059921EA0000059009988F
:1027D0008079C006002805D5FFE7069805990843CB
:1027E0000590FFE7059843F60841C4F2010108602F
:1027F00043F60C40C4F20100006805900698059964
:1028000021EA00000590099880798006002805D506
:10281000FFE70698059908430590FFE7059843F6FA
:102820000C41C4F20101086043F60440C4F2010007
:10283000006805900698059921EA0000059009981E
:1028400080798007002805D5FFE706980599084399
:102850000590FFE7059843F60441C4F201010860C2
:1028600043F60040C4F201000068059006980599FF
:1028700021EA0000059009988079C007002805D05A
:10288000FFE70698059908430590FFE7059843F68A
:102890000041C4F201010860FFE7FFE7FFE7089885
:1028A0000130089053E60BB07047000082B0134629
:1028B0008C460190ADF802108DF801209DF80100C2
:1028C000002805D0FFE7BDF802000199886105E006
:1028D000BDF80200000401998861FFE702B070476B
:1028E00040F22C50C2F200000068704740F2F9003C
:1028F000C2F20000007840F22C51C2F200010A68D6
:10290000104408607047000080B582B043F6004074
:10291000C4F20200016841F400710160016841F4F1
:1029200080610160016841F480710160032000F062
:1029300095F80F2000F006F8019000F03DF8002017
:1029400002B080BD80B582B0009040F20000C2F2BB
:102950000000006840F2F901C2F2000109784FF46A
:102960007A72B2FBF1F1B0FBF1F000F0B5FD002896
:1029700004D0FFE701208DF8070018E000980F2829
:102980000DD8FFE700994FF0FF30002200F046F825
:10299000009840F2FC01C2F20001086003E001204F
:1029A0008DF8070003E000208DF80700FFE79DF891
:1029B000070002B080BD000082B0FFE70020019058
:1029C00043F64400C4F20200016841F48041016012
:1029D000006800F4804001900198FFE7FFE70020C5
:1029E000009043F64000C4F20200016841F08051BB
:1029F0000160006800F0805000900098FFE702B08E
:102A00007047000080B582B001468DF807009DF93F
:102A10000700009103F0BCFA02B080BD80B588B019
:102A200003468DF81F000691059200200490039341
:102A300003F0C8FA04909DF91F000499069A059BBB
:102A40000290084611461A4602F0A4F90299019034
:102A50000846019903F0BEFA08B080BD80B582B087
:102A60000190019803F0D8FA02B080BD80B584B01F
:102A7000029001910298002804D1FFE701208DF80F
:102A80000F0021E1019843F60041C4F202010968F8
:102A900001F00701884212D9FFE7019843F600418F
:102AA000C4F202010870086800F00700019988422A
:102AB00004D0FFE701208DF80F0005E1FFE7029841
:102AC0000078800700282AD5FFE7029800784007A1
:102AD000002809D5FFE743F60800C4F202000168A8
:102AE00041F4E0510160FFE70298007800070028F8
:102AF00009D5FFE743F60800C4F20200016841F47B
:102B000060410160FFE743F60800C4F2020001687B
:102B100021F0F001029A926811430160FFE70298E8
:102B20000078C00700286ED0FFE7029840680128AF
:102B300011D1FFE743F60000C4F20200006800F480
:102B400000300021B1EB504F04D1FFE701208DF898
:102B50000F00B9E02CE002984068022805D0FFE79A
:102B600002984068032811D1FFE743F60000C4F241
:102B70000200006800F000700021B1EB506F04D13A
:102B8000FFE701208DF80F009EE010E043F6000003
:102B9000C4F20200006800F002000021B1EB500F07
:102BA00004D1FFE701208DF80F008DE0FFE7FFE77C
:102BB00043F60800C4F20200016821F00301029A02
:102BC000526811430160FFF78BFE0090FFE743F668
:102BD0000800C4F20200006800F00C000299496885
:102BE000B0EB810F0ED0FFE7FFF77AFE0099401A95
:102BF00041F28931884204D3FFE703208DF80F00AA
:102C000062E0E4E7FFE7019843F60041C4F2020105
:102C1000096801F00701884212D2FFE7019843F6E4
:102C20000041C4F202010870086800F00700019931
:102C3000884204D0FFE701208DF80F0044E0FFE751
:102C400002980078400700280CD5FFE743F60800FB
:102C5000C4F20200016821F4E051029AD2681143E3
:102C60000160FFE702980078000700280DD5FFE714
:102C700043F60800C4F20200016821F46041029AA0
:102C8000126941EAC2010160FFE700F04BF843F628
:102C90000801C4F202010968C9B2090947F2DC421D
:102CA000C0F60002515CC84040F20001C2F20001CF
:102CB000086040F2FC00C2F200000068FFF742FE2C
:102CC00000218DF80F10FFE79DF80F0004B080BDC4
:102CD00040F20000C2F200000068704780B5FFF7C4
:102CE000F7FF43F60801C4F202010968C1F382212B
:102CF00047F2EC42C0F60002515CC84080BD0000C3
:102D000080B5FFF7E5FF43F60801C4F20201096848
:102D100089B2490B47F2EC42C0F60002515CC84050
:102D200080BD000080B586B000200590049003901F
:102D3000029043F60800C4F20200006800F00C00A4
:102D400001460028019108D0FFE7019804280AD025
:102D5000FFE7019808280CD04FE042F20040C0F293
:102D6000F40002904FE047F64000C0F27D10029060
:102D700049E043F60400C4F20200016801F03F019B
:102D8000059100684002002813D5FFE743F60400D0
:102D9000C4F202000068C0F3881047F64001C0F298
:102DA0007D11A0FB0101059A0023FDF777FA04903D
:102DB00012E043F60400C4F202000068C0F3881079
:102DC00042F20041C0F2F401A0FB0101059A002388
:102DD000FDF764FA0490FFE743F60400C4F2020032
:102DE000006800F44030022101EBD03003900498D9
:102DF0000399B0FBF1F0029005E042F20040C0F20E
:102E0000F4000290FFE7029806B080BD80B586B05E
:102E100004900498002804D1FFE701208DF81700E2
:102E200055E304980078C007002800F0A780FFE76A
:102E300043F60800C4F20200006800F00C00042809
:102E400013D0FFE743F60800C4F20200006800F068
:102E50000C0008281FD1FFE743F60400C4F202006B
:102E600000684002002816D5FFE743F60000C4F2D0
:102E70000200006800F400300021B1EB504F09D08F
:102E8000FFE704984068002804D1FFE701208DF88F
:102E900017001CE371E0FFE704984068B0F5803F3D
:102EA00009D1FFE743F60000C4F20200016841F4D3
:102EB0008031016020E004984068B0F5A02F0DD16A
:102EC000FFE743F60000C4F20200016841F48021EC
:102ED0000160016841F4803101600CE043F60000BC
:102EE000C4F20200016821F480310160016821F41C
:102EF00080210160FFE7FFE7FFE7049840680028B2
:102F00001DD0FFE7FFF7ECFC0390FFE743F600005E
:102F1000C4F20200006800F400300021B1EB504F11
:102F20000CD1FFE7FFF7DCFC0399401A652804D3B6
:102F3000FFE703208DF81700C9E2E7E71CE0FFF781
:102F4000CFFC0390FFE743F60000C4F202000068E4
:102F500000F400300021B1EB504F0CD0FFE7FFF739
:102F6000BFFC0399401A652804D3FFE703208DF8BE
:102F70001700ACE2E7E7FFE7FFE7FFE70498007818
:102F80008007002840F19780FFE743F60800C4F26D
:102F90000200006810F00C0F13D0FFE743F60800A2
:102FA000C4F20200006800F00C0008282CD1FFE7F2
:102FB00043F60400C4F2020000684002002823D453
:102FC000FFE743F60000C4F20200006800F00200D0
:102FD0000021B1EB500F09D0FFE70498C068012829
:102FE00004D0FFE701208DF8170070E243F60000DF
:102FF000C4F20200016821F0F801049A126941EA62
:10300000C2010160FFE755E00498C06800282ED097
:10301000FFE70020C4F2472001210160FFF760FCB8
:103020000390FFE743F60000C4F20200006800F0DE
:1030300002000021B1EB500F0CD1FFE7FFF750FC6D
:103040000399401A032804D3FFE703208DF81700E3
:103050003DE2E7E743F60000C4F20200016821F018
:10306000F801049A126941EAC201016021E00020DE
:10307000C4F2472000210160FFF732FC0390FFE714
:1030800043F60000C4F20200006800F002000021D4
:10309000B1EB500F0CD0FFE7FFF722FC0399401A69
:1030A000032804D3FFE703208DF817000FE2E7E7BA
:1030B000FFE7FFE7FFE704980078000700284CD5FA
:1030C000FFE704984069002823D0FFE740F68060BE
:1030D000C4F2472001210160FFF702FC0390FFE7E3
:1030E00043F67400C4F20200006800F00200002100
:1030F000B1EB500F0CD1FFE7FFF7F2FB0399401A39
:10310000032804D3FFE703208DF81700DFE1E7E78A
:1031100022E040F68060C4F2472000210160FFF702
:10312000DFFB0390FFE743F67400C4F2020000687F
:1031300000F002000021B1EB500F0CD0FFE7FFF7C9
:10314000CFFB0399401A032804D3FFE703208DF82F
:103150001700BCE1E7E7FFE7FFE7049800784007C6
:10316000002840F1CF80FFE700208DF8070043F6EC
:103170004000C4F202000068C000002815D4FFE738
:10318000FFE70020009043F64000C4F2020001680F
:1031900041F080510160006800F08050009000987C
:1031A000FFE701208DF80700FFE747F20000C4F2B7
:1031B00000000068C005002822D4FFE747F20000A5
:1031C000C4F20000016841F480710160FFF788FBE0
:1031D0000390FFE747F20000C4F200000068C0055A
:1031E00000280CD4FFE7FFF77BFB0399401A032864
:1031F00004D3FFE703208DF8170068E1EAE7FFE753
:10320000FFE704988068012809D1FFE743F67000C2
:10321000C4F20200016841F0010101601FE004985E
:10322000806805280DD1FFE743F67000C4F2020064
:10323000016841F004010160016841F00101016091
:103240000CE043F67000C4F20200016821F00101B5
:103250000160016821F004010160FFE7FFE7FFE77B
:103260000498806800281FD0FFE7FFF739FB039020
:10327000FFE743F67000C4F20200006800F00200AD
:103280000021B1EB500F0ED1FFE7FFF729FB0399A7
:10329000401A41F28931884204D3FFE703208DF8B8
:1032A000170014E1E5E71EE0FFF71AFB0390FFE7C4
:1032B00043F67000C4F20200006800F00200002132
:1032C000B1EB500F0ED0FFE7FFF70AFB0399401A4E
:1032D00041F28931884204D3FFE703208DF81700BB
:1032E000F5E0E5E7FFE79DF80700012809D1FFE7D2
:1032F00043F64000C4F20200016821F080510160F1
:10330000FFE7FFE704988069002800F0DC80FFE712
:1033100043F60800C4F20200006800F00C00082820
:1033200000F08580FFE70498806902285CD1FFE700
:103330006020C4F2472000210160FFF7D1FA03901A
:10334000FFE743F60000C4F20200006800F00070DE
:103350000021B1EB506F0CD0FFE7FFF7C1FA0399E2
:10336000401A032804D3FFE703208DF81700AEE0CE
:10337000E7E70498C169026A436AD0F828C011439C
:1033800041EA83114FEACC324FF6FF739A43A2F51C
:1033900080321143C06A41EA006043F60401C4F27E
:1033A000020108606020C4F2472001210160FFF79C
:1033B00097FA0390FFE743F60000C4F202000068AA
:1033C00000F000700021B1EB506F0CD1FFE7FFF768
:1033D00087FA0399401A032804D3FFE703208DF8E6
:1033E000170074E0E7E721E06020C4F247200021E5
:1033F0000160FFF775FA0390FFE743F60000C4F29F
:103400000200006800F000700021B1EB506F0CD09A
:10341000FFE7FFF765FA0399401A032804D3FFE793
:1034200003208DF8170052E0E7E7FFE74AE0049831
:103430008069012804D1FFE701208DF8170046E0DC
:1034400043F60400C4F20200006802900498806908
:10345000012831D0FFE7029800F480000499C9697F
:10346000884229D1FFE7029800F03F000499096AD9
:10347000884221D1FFE7029847F6C07108400499BD
:10348000496AB0EB811F17D1FFE7029800F4403082
:103490000499896AC9034FF6FF729143A1F58031FF
:1034A000884209D1FFE7029800F070600499C96A68
:1034B000B0EB016F04D0FFE701208DF8170006E0A4
:1034C000FFE7FFE7FFE700208DF81700FFE79DF813
:1034D000170006B080BD000080B582B00190019851
:1034E00001F0AEFE02B080BD81B0009001B0704727
:1034F00081B0009001B0704785B003900291FFE762
:10350000039890F83C00012804D1FFE702208DF8D1
:1035100013006CE00398012180F83C10FFE7FFE7FF
:103520000398022180F83D100398006840680190DC
:103530000398006880680090019820F07000019066
:10354000029800680199084301900198039909685D
:103550004860039800680021C4F2010188422AD023
:10356000FFE703980068B0F1804F24D0FFE703988D
:10357000006840F20041C4F2000188421BD0FFE71E
:103580000398006840F60001C4F20001884212D09E
:10359000FFE70398006840F60041C4F2000188424A
:1035A00009D0FFE70398006844F20001C4F201016A
:1035B00088420ED1FFE7009820F08000009002982A
:1035C0004068009908430090009803990968886052
:1035D000FFE70398012180F83D10FFE703980021E1
:1035E00080F83C10FFE700208DF81300FFE79DF8FE
:1035F000130005B07047000080B584B002900298B7
:10360000002804D1FFE701208DF80F0043E0029865
:1036100090F83D00002808D1FFE70298002180F8CB
:103620003C10029800F03CF8FFE70298022180F875
:103630003D10029850F8041B01900846019901F0D2
:10364000B9FE0298012180F84610FFE70298012197
:1036500080F83E10029880F83F10029880F84010E1
:10366000029880F84110FFE7FFE70298012180F8F7
:103670004210029880F84310029880F84410029893
:1036800080F84510FFE70298012180F83D100020E6
:103690008DF80F00FFE79DF80F0004B080BD00001B
:1036A00080B58CB00B900B9800680021C4F201012A
:1036B00088421BD1FFE7FFE700200A9043F6440051
:1036C000C4F20200016841F001010160006800F0ED
:1036D00001000A900A98FFE71920012100220690B4
:1036E000FFF79CF90698FFF78DF96EE00B980068DC
:1036F000B0F1804F1CD1FFE7FFE70020099043F6AF
:103700004000C4F20200016841F00101016000685C
:1037100000F0010009900998FFE71C2000210590A6
:103720000491049AFFF77AF90598FFF76BF94BE0DB
:103730000B98006840F20041C4F2000188421CD19D
:10374000FFE7FFE70020089043F64000C4F20200C4
:10375000016841F002010160006800F00200089079
:103760000898FFE71D20002103900291029AFFF7BD
:1037700055F90398FFF746F925E00B98006840F6E5
:103780000001C4F2000188421CD1FFE7FFE70020DE
:10379000079043F64000C4F20200016841F00401C2
:1037A0000160006800F0040007900798FFE71E2002
:1037B000002101900091009AFFF730F90198FFF77E
:1037C00021F9FFE7FFE7FFE7FFE70CB080BD00004E
:1037D00083B00190019890F83D00012804D0FFE7E4
:1037E00001208DF80B0052E00198022180F83D1075
:1037F000019800680021C4F2010188422AD0FFE745
:1038000001980068B0F1804F24D0FFE7019800686C
:1038100040F20041C4F2000188421BD0FFE701984A
:10382000006840F60001C4F20001884212D0FFE7B0
:103830000198006840F60041C4F20001884209D0B6
:10384000FFE70198006844F20001C4F201018842D8
:1038500012D1FFE701980068806800F0070000902F
:103860000098062807D0FFE701980068016841F03A
:1038700001010160FFE706E001980068016841F07E
:1038800001010160FFE700208DF80B00FFE79DF8C4
:103890000B0003B07047000083B00190019890F8CE
:1038A0003D00012804D0FFE701208DF80B0058E00F
:1038B0000198022180F83D1001980068C16841F02C
:1038C0000101C160019800680021C4F20101884231
:1038D0002AD0FFE701980068B0F1804F24D0FFE7BD
:1038E0000198006840F20041C4F2000188421BD0F8
:1038F000FFE70198006840F60001C4F20001884229
:1039000012D0FFE70198006840F60041C4F20001C0
:10391000884209D0FFE70198006844F20001C4F230
:103920000101884212D1FFE701980068806800F029
:10393000070000900098062807D0FFE7019800686C
:10394000016841F001010160FFE706E001980068AD
:10395000016841F001010160FFE700208DF80B00D4
:10396000FFE79DF80B0003B07047000080B58CB0F6
:103970000A90099100208DF82300FFE70A9890F83B
:103980003C00012804D1FFE702208DF82F00BBE0A6
:103990000A98012180F83C10FFE7FFE70A9802210E
:1039A00080F83D100A98006880680790079820F01A
:1039B00077000790079820F47F40079007980A99AE
:1039C00009688860099800680028069000F08280E5
:1039D000FFE7069810287DD0FFE70698202879D0C9
:1039E000FFE70698302875D0FFE70698402861D099
:1039F000FFE7069850283DD0FFE70698602849D099
:103A0000FFE7069870280BD0FFE70698B0F5805FB7
:103A100005D0FFE70698B0F5005F19D061E064E0DB
:103A20000A98006809994A688B68C968059119461F
:103A3000059B01F07DFD0A98006880680790079853
:103A400040F07700079007980A99096888604CE071
:103A50000A98006809994A688B68C96804911946F0
:103A6000049B01F065FD0A980068816841F480417B
:103A700081603AE00A98006809994A68C968039128
:103A80001146039A01F008FF0A980068502101F0DE
:103A900069FD2AE00A98006809994A68C968029194
:103AA0001146029A01F020FF0A980068602101F097
:103AB00059FD1AE00A98006809994A68C968019195
:103AC0001146019A01F0E8FE0A980068402101F0D1
:103AD00049FD0AE00A9800680999096801F042FD69
:103AE00003E001208DF82300FFE70A98012180F808
:103AF0003D10FFE70A98002180F83C10FFE79DF891
:103B000023008DF82F00FFE79DF82F000CB080BD3B
:103B100081B0009001B0704780B584B003900398E5
:103B20000068C068029003980068006901909DF8E1
:103B300004008007002825D5FFE79DF808008007CE
:103B400000281ED5FFE7039800686FF002010161AD
:103B50000398012101770398006880698007002895
:103B600004D0FFE70398FFF7D3FF06E0039800F0C7
:103B70001BF9039800F04AFBFFE703980021017747
:103B8000FFE7FFE79DF804004007002825D5FFE781
:103B90009DF80800400700281ED5FFE7039800683D
:103BA0006FF0040101610398022101770398006816
:103BB000806910F4407F04D0FFE70398FFF7A8FF67
:103BC00006E0039800F0F0F8039800F01FFBFFE711
:103BD000039800210177FFE7FFE79DF80400000745
:103BE000002825D5FFE79DF80800000700281ED50E
:103BF000FFE7039800686FF0080101610398042152
:103C0000017703980068C0698007002804D0FFE7A7
:103C10000398FFF77DFF06E0039800F0C5F80398CE
:103C200000F0F4FAFFE7039800210177FFE7FFE7D0
:103C30009DF80400C006002825D5FFE79DF8080080
:103C4000C00600281ED5FFE7039800686FF010013A
:103C5000016103980821017703980068C06910F496
:103C6000407F04D0FFE70398FFF752FF06E0039878
:103C700000F09AF8039800F0C9FAFFE703980021D2
:103C80000177FFE7FFE79DF80400C007002810D088
:103C9000FFE79DF80800C007002809D0FFE7039858
:103CA00000686FF001010161039800F075FBFFE708
:103CB000FFE79DF804000006002810D5FFE79DF8F7
:103CC00008000006002809D5FFE7039800686FF098
:103CD000800101610398FFF707FCFFE7FFE79DF80C
:103CE00004004006002810D5FFE79DF808004006B4
:103CF000002809D5FFE7039800686FF040010161D3
:103D0000039800F05FFBFFE7FFE79DF804008006E3
:103D1000002810D5FFE79DF808008006002809D587
:103D2000FFE7039800686FF0200101610398FFF737
:103D3000DFFBFFE7FFE704B080BD000080B588B07F
:103D40000790002006900590049003900290079839
:103D5000006840F60001C4F20001884221D1FFE76B
:103D6000FFE70020019043F63000C4F20200016832
:103D700041F002010160006800F00200019001982A
:103D8000FFE740200290022003900021049105915A
:103D9000069040F20040C4F2020002A9FEF7CEFBFA
:103DA000FFE708B080BD000080B582B001900198A7
:103DB0000068B0F1804F40F08380FFE70198007FFA
:103DC00001287DD1FFE740F23440C2F200000178C3
:103DD000013101700078C007002854D1FFE740F29C
:103DE0003440C2F200000021017040F2A410C2F27F
:103DF000000081680139816040F2B411C2F2000113
:103E00008A68013A8A600079012808D1FFE740F208
:103E1000A410C2F20000C1680131C16007E040F2A5
:103E2000A410C2F20000C1680139C160FFE740F28E
:103E3000B410C2F200000079012808D1FFE740F277
:103E4000B410C2F20000C1680131C16007E040F265
:103E5000B410C2F20000C1680139C160FFE740F24E
:103E6000A410C2F20000806800280BD1FFE740F2E6
:103E7000B410C2F200008068002803D1FFE702F00E
:103E8000CBFAFFE7FFE740F2CC20C2F20000016866
:103E9000496B40F2A012C2F2000211601168963123
:103EA00048F20102C8F20002A1FB02234FEAD33C10
:103EB0004FEA0C4CACEBD333C91A00684163FFE7FF
:103EC00002B080BD80B586B00590049100208DF8C9
:103ED0000F0004980C28029025D80299DFE801F021
:103EE000072323230E232323152323231C000598B4
:103EF0000068C16821F00201C16018E005980068FF
:103F0000C16821F00401C16011E005980068C16832
:103F100021F00801C1600AE005980068C16821F03D
:103F20001001C16003E001208DF80F00FFE79DF84C
:103F30000F0000286CD1FFE7059800680499002263
:103F400001F0DAFA059800680021C4F20101884204
:103F50001BD1FFE7FFE705980068006A41F21111E5
:103F6000084210D1FFE705980068006A40F244411A
:103F7000084207D1FFE705980068416C21F4004131
:103F80004164FFE7FFE7FFE7FFE7FFE70598006809
:103F9000006A41F21111084210D1FFE7059800684C
:103FA000006A40F24441084207D1FFE705980068E3
:103FB000016821F001010160FFE7FFE7FFE70498D6
:103FC000002805D1FFE70598012180F83E101EE08A
:103FD0000498042806D1FFE70598012180F83F10D6
:103FE000019112E00498082806D1FFE70598012105
:103FF00080F84010009105E00598012180F84110FB
:104000000091FFE700980190FFE70198FFE7FFE7C5
:104010009DF80F0006B080BD80B586B00490039176
:10402000029200208DF80700FFE7049890F83C000A
:10403000012804D1FFE702208DF8170089E00498D9
:10404000012180F83C10FFE7FFE702980C28009060
:1040500000F270800099DFE801F0076D6D6D206D52
:104060006D6D3A6D6D6D530004980068039901F011
:104070008FFA04980068816941F008018161049811
:104080000068816921F00401816103980069049945
:1040900009688A691043886150E0049800680399B0
:1040A00001F0DCFA04980068816941F400618161E3
:1040B00004980068816921F4806181610398006936
:1040C000049909688A6942EA0020886136E0049808
:1040D0000068039901F02CFB04980068C16941F065
:1040E0000801C16104980068C16921F00401C1613F
:1040F0000398006904990968CA691043C8611DE002
:1041000004980068039901F07DFB04980068C16978
:1041100041F40061C16104980068C16921F48061C3
:10412000C1610398006904990968CA6942EA0020DC
:10413000C86103E001208DF80700FFE7FFE704985E
:10414000002180F83C10FFE79DF807008DF817006C
:10415000FFE79DF8170006B080BD000080B584B071
:1041600002900298002804D1FFE701208DF80F008B
:1041700043E0029890F83D00002808D1FFE702983C
:10418000002180F83C10029800F03CF8FFE702980C
:10419000022180F83D10029850F8041B0190084657
:1041A000019901F007F90298012180F84610FFE714
:1041B0000298012180F83E10029880F83F10029882
:1041C00080F84010029880F84110FFE7FFE702985E
:1041D000012180F84210029880F84310029880F87C
:1041E0004410029880F84510FFE70298012180F8FA
:1041F0003D1000208DF80F00FFE79DF80F0004B080
:1042000080BD000081B0009001B0704781B0009087
:1042100001B0704780B58AB00890079107980028D0
:1042200005D1FFE7089890F83E0005901CE007983C
:10423000042805D1FFE7089890F83F00049010E0AB
:104240000798082805D1FFE7089890F840000390E8
:1042500004E0089890F841000390FFE70398049069
:10426000FFE704980590FFE70598012804D0FFE7D1
:1042700001208DF827008BE00798002805D1FFE783
:104280000898022180F83E101EE00798042806D105
:10429000FFE70898022180F83F10029112E007988A
:1042A000082806D1FFE70898022180F84010019104
:1042B00005E00898022180F841100191FFE701987C
:1042C0000290FFE70298FFE708980068079901222B
:1042D00001F012F9089800680021C4F20101884237
:1042E00007D1FFE708980068416C41F40041416440
:1042F000FFE7089800680021C4F2010188422AD033
:10430000FFE708980068B0F1804F24D0FFE70898D5
:10431000006840F20041C4F2000188421BD0FFE770
:104320000898006840F60001C4F20001884212D0EB
:10433000FFE70898006840F60041C4F20001884297
:1043400009D0FFE70898006844F20001C4F20101B7
:10435000884212D1FFE708980068806800F00700E3
:1043600006900698062807D0FFE7089800680168BD
:1043700041F001010160FFE706E00898006801686C
:1043800041F001010160FFE700208DF82700FFE701
:104390009DF827000AB080BD80B582B001900198D9
:1043A00040F2CC21C2F20001884209D1FFE700F0BF
:1043B00001FF40F2CC20C2F20000FFF76DFAFFE7E8
:1043C00002B080BD81B0009001B0704780B586B06A
:1043D000134604900391ADF80A20049890F8420027
:1043E00020284AD1FFE70398002805D0FFE7BDF851
:1043F0000A00002804D1FFE701208DF8170040E0F3
:1044000004980121016304980021416304980399F1
:10441000BDF80A2001F078FC8DF809000498006BC3
:10442000012821D1FFE7FFE70020019004980068F0
:104430000068019004980068406801900198FFE7C7
:10444000FFE7FFE70498006850E8030F40F0100012
:104450000090FFE700980499096841E80302002AE8
:10446000F0D1FFE7FFE703E001208DF80900FFE747
:104470009DF809008DF8170003E002208DF8170061
:10448000FFE79DF8170006B080BD000082B00A4625
:104490000190ADF8021002B07047000081B00090AA
:1044A00001B0704780B582B000900098002804D118
:1044B000FFE701208DF8070042E00098806900289E
:1044C00001D0FFE700E0FFE7009890F841000028E6
:1044D00008D1FFE70098002180F84010009800F014
:1044E00033F8FFE70098242180F841100098006815
:1044F000C16821F40051C160009801F059FB009897
:104500000068016921F490410161009800684169E7
:1045100021F02A01416100980068C16841F400510E
:10452000C1600098002141640098202280F8412059
:10453000009880F84220009841638DF80710FFE74B
:104540009DF8070002B080BD80B58CB00B900020B4
:104550000A9009900890079006900B98006841F225
:104560000001C4F20101884260D1FFE7FFE70020AB
:10457000059043F64400C4F20200016841F01001C6
:104580000160006800F0100005900598FFE7FFE764
:104590000020049043F63000C4F20200016841F0AC
:1045A00001010160006800F0010004900498FFE739
:1045B0004FF4C0600690022007900020089003216D
:1045C000099107210A910021C4F2020106AA019073
:1045D00008461146FDF7B2FF40F2C410C2F20000D7
:1045E00046F24041C4F2020101604FF000614160B7
:1045F00001998160C1604FF4806202614161816113
:10460000C16101624162FDF779FE002803D0FFE736
:10461000FDF7CEFCFFE7FFE70B9840F2C411C2F2B2
:104620000001C1630B988863FFE768E00B9800689E
:1046300044F20041C4F2000188425FD1FFE7FFE786
:104640000020039043F64000C4F20200016841F4E8
:1046500000310160006800F4003003900398FFE728
:10466000FFE70020029043F63000C4F20200016828
:1046700041F001010160006800F001000290029821
:10468000FFE70C20069002200790002008900321ED
:10469000099107210A910021C4F2020106AA0090A3
:1046A00008461146FDF74AFF40F22420C2F20000FE
:1046B00046F28801C4F2020101604FF000614160DE
:1046C00000998160C1604FF4806202614161816143
:1046D000C16101624162FDF711FE002803D0FFE7CE
:1046E000FDF766FCFFE7FFE70B9840F22421C2F2DA
:1046F0000001C1630B988863FFE7FFE7FFE70CB099
:1047000080BD000080B584B0134602900191ADF8E1
:104710000220029890F84200202819D1FFE7019862
:10472000002805D0FFE7BDF80200002804D1FFE70C
:1047300001208DF80F000FE002980021016302981C
:104740000199BDF8022001F07DFB8DF80F0003E018
:1047500002208DF80F00FFE79DF80F0004B080BD28
:1047600080B584B003900398006841F20001C4F260
:104770000101884242D1FFE740F22950C2F2000015
:1047800000780A2808D0FFE740F22A50C2F2000061
:1047900000781F2814DBFFE740F22A50C2F2000025
:1047A000017840F20952C2F20002002353540290F1
:1047B0001046019301F0FAFD01980299087011E08A
:1047C00040F22950C2F20000007840F22A51C2F2B1
:1047D00000010A78531C0B7040F20951C2F200012B
:1047E0008854FFE740F2A430C2F2000040F22951A1
:1047F000C2F200010122FFF785FFFFE704B080BD90
:1048000081B0009001B0704780B58AB0944608909E
:104810000791ADF81A20059300200290089890F8AF
:104820004100202840F08880FFE70798002805D045
:10483000FFE7BDF81A00002804D1FFE701208DF83A
:1048400027007DE00898002141640898212180F824
:104850004110FEF745F80290BDF81A0008998884C7
:10486000BDF81A000899C88408988068B0F5805F80
:104870000AD1FFE708980069002805D1FFE700206A
:1048800004900798039004E0079804900020039098
:10489000FFE7FFE70898C08C002831D0FFE70898B1
:1048A000029B05996A4611608021002201F0FEFA00
:1048B000002808D0FFE70898202180F84110032045
:1048C0008DF827003CE0049800280BD1FFE70398FF
:1048D00000886FF35F2008990968486003980230E8
:1048E000039008E0049800780899096848600498E3
:1048F00001300490FFE70898C18C0139C184C9E7F1
:104900000898029B05996A4611604021002201F037
:10491000CDFA002808D0FFE70898202180F8411040
:1049200003208DF827000BE00898202180F8411023
:1049300000208DF8270003E002208DF82700FFE714
:104940009DF827000AB080BDFFE7FEE780B586B07E
:10495000FFE70020059043F63000C4F20200016832
:1049600041F400110160006800F400100590059802
:10497000FFE7FFE70020049043F63000C4F2020096
:10498000016841F480010160006800F48000049037
:104990000498FFE71020002103900291029AFEF78D
:1049A0003DF80398FEF72EF83A2001900299029AFA
:1049B000FEF734F80198FEF725F806B080BD000038
:1049C00080B58CB000200B900A9009900890079059
:1049D000FFE70020069043F63000C4F202000168B1
:1049E00041F080010160006800F0800006900698A8
:1049F000FFE7FFE70020059043F63000C4F2020015
:104A0000016841F001010160006800F001000590BB
:104A10000598FFE7FFE70020049043F63000C4F25A
:104A20000200016841F002010160006800F002002C
:104A300004900498FFE70020C4F202001021002235
:104A4000039002910192FDF731FF02980790012136
:104A50000891019909910A9107A90398FDF76EFD44
:104A60000CB080BD80B586B0002005900490039006
:104A700002900190009040F28421C2F200010022D5
:104A8000C4F201020A6053224A60886042F20F7247
:104A9000CA600861486188610846FEF7ADFD0028DC
:104AA00003D0FFE7FDF784FAFFE74FF48050029050
:104AB00040F28420C2F2000002A9FEF757FF00284E
:104AC00003D0FFE7FDF774FAFFE7002000900190A4
:104AD00040F28420C2F200006946FEF70DFD002876
:104AE00003D0FFE7FDF764FAFFE706B080BD0000E2
:104AF00080B586B00020059004900390029001904C
:104B0000009040F2CC21C2F200014FF080420A60D6
:104B100053224A60886040F2E732CA6008618861C7
:104B20000846FEF769FD002803D0FFE7FDF740FACD
:104B3000FFE74FF48050029040F2CC20C2F2000018
:104B400002A9FEF713FF002803D0FFE7FDF730FAB4
:104B5000FFE700200090019040F2CC20C2F200005C
:104B60006946FEF7C9FC002803D0FFE7FDF720FAED
:104B7000FFE706B080BD000080B586B0002005903C
:104B80000490039002900190009040F21431C2F220
:104B9000000140F20042C4F200020A6053224A605F
:104BA000886040F2E732CA60086188610846FEF713
:104BB00023FD002803D0FFE7FDF7FAF9FFE74FF4E4
:104BC0008050029040F21430C2F2000002A9FEF7B9
:104BD000CDFE002803D0FFE7FDF7EAF9FFE700204C
:104BE0000090019040F21430C2F200006946FEF7D6
:104BF00083FC002803D0FFE7FDF7DAF9FFE706B0F2
:104C000080BD000080B58EB000200D900C900B9000
:104C10000A900990089007900690059004900390E0
:104C20000290019040F25C31C2F2000140F60002B5
:104C3000C4F200020A60486088604FF6FF72CA60E2
:104C4000086188610846FEF7D7FC002803D0FFE71B
:104C5000FDF7AEF9FFE74FF480500A9040F25C3068
:104C6000C2F200000AA9FEF781FE002803D0FFE788
:104C7000FDF79EF9FFE740F25C30C2F20000FFF75B
:104C80006DFA002803D0FFE7FDF792F9FFE7002057
:104C90000890099040F25C30C2F2000008A9FEF7CB
:104CA0002BFC002803D0FFE7FDF782F9FFE7602027
:104CB0000190002002900390059040F25C31C2F216
:104CC000000101AA009008461146009AFFF7A4F9D6
:104CD000002803D0FFE7FDF76BF9FFE740F25C30F7
:104CE000C2F20000FFF72AF80EB080BD80B540F296
:104CF000A430C2F2000041F20001C4F201010160DF
:104D00004FF4E131416000218160C16001610C22FA
:104D100042618161C161FFF7C5FB002803D0FFE755
:104D2000FDF746F9FFE780BD80B540F2EC30C2F2F6
:104D3000000044F20041C4F2000101604FF4E1318F
:104D4000416000218160C16001610C22426181618A
:104D5000C161FFF7A7FB002803D0FFE7FDF728F9A3
:104D6000FFE780BD80B50020C4F2020010210022C0
:104D7000FDF79CFD80BD000080B50020C4F202005C
:104D800010210122FDF792FD80BD0000FFE7FEE744
:104D9000FFE7FEE788B0079006910592079800F0BC
:104DA000070004900498C0F10700052803D3FFE72B
:104DB0000420019004E00498C0F107000190FFE78F
:104DC0000198039004980430062803D8FFE70020D8
:104DD000009003E0049803380090FFE700980290E9
:104DE00006980399012202FA01F10139084002995B
:104DF0008840059B02FA01F101391940084308B0C7
:104E0000704700007047000080B584B0FDF768FD72
:104E100040F29C11C2F20001086040F23840C2F238
:104E20000000007A002801D1FFE74BE140F2384052
:104E3000C2F20000007801461128039100F242817D
:104E40000399DFE811F03701120027003A0049000A
:104E500060006F0086009500AC00C100D400E30044
:104E6000FA00090118012A01370140F23840C2F264
:104E70000000C168026902900846114601F0C0F9BD
:104E800040F29C10C2F200000068029948600220C3
:104E9000087017E101F0DEF800280DD1FFE740F2BD
:104EA0009C10C2F20000006840F23841C2F20001DA
:104EB000486003200870FFE704E100F0AFF940F21A
:104EC0009C10C2F20000006840F23841C2F20001BA
:104ED000486004200870F5E040F29C10C2F2000027
:104EE000006840F23841C2F200014968401AB0F54A
:104EF0007A7F07D3FFE740F23840C2F20000052175
:104F00000170FFE7DEE0FFF737FF40F29C10C2F2CE
:104F10000000006840F23841C2F2000148600620FB
:104F20000870CFE040F29C10C2F20000006840F22E
:104F30003841C2F200014968401AB0F57A7F07D3C0
:104F4000FFE740F23840C2F2000007210170FFE79E
:104F5000B8E000F06BF940F29C10C2F2000000686B
:104F600040F23841C2F20001486008200870A9E010
:104F700040F29C10C2F20000006840F23841C2F2D8
:104F800000014968401AB0F57A7F07D3FFE740F285
:104F90003840C2F2000009210170FFE792E040F2C0
:104FA0003840C2F20000416982690190084611460A
:104FB00001F026F940F29C10C2F20000006801994D
:104FC00048600A2008707DE001F044F800280DD107
:104FD000FFE740F29C10C2F20000006840F2384146
:104FE000C2F2000148600B200870FFE76AE000F0A1
:104FF00015F940F29C10C2F20000006840F23841FE
:10500000C2F2000148600C2008705BE040F29C1086
:10501000C2F20000006840F23841C2F20001496863
:10502000401AB0F57A7F07D3FFE740F23840C2F26A
:1050300000000D210170FFE744E0FFF793FE40F20E
:105040009C10C2F20000006840F23841C2F2000138
:1050500048600E20087035E000F0E8F840F29C103F
:10506000C2F20000006840F23841C2F2000148601C
:105070000F20087026E000200090009901F0C0F891
:1050800040F29C10C2F20000006840F23841C2F2C7
:10509000000148601020087014E000F0DBFF0028D9
:1050A00007D1FFE740F23840C2F200001121017041
:1050B000FFE707E040F23840C2F200000021017033
:1050C0000172FFE704B080BD81B00A4603468DF847
:1050D00003008DF802109DF8030000280FD0FFE7B1
:1050E0009DF803000A280ADCFFE79DF8020000286B
:1050F00005D0FFE79DF802000B2801DBFFE757E032
:105100009DF803008DF801009DF802008DF8000065
:105110009DF8030040F23841C2F2000148709DF84A
:10512000020088709DF8010040F29402C2F2000271
:1051300002EBC00352F83000C8605868086140F2C2
:105140008840C2F200000078002812D0FFE79DF8E6
:10515000000040F24C01C2F2000101EBC00251F824
:10516000300040F23841C2F2000148615068886165
:1051700011E09DF8000040F20401C2F2000101EBD1
:10518000C00251F8300040F23841C2F200014861DB
:1051900050688861FFE740F23840C2F20000012108
:1051A0000170017240F25440C2F200000170FFE74A
:1051B00001B0704780B582B040F25440C2F20000A6
:1051C000007801460328019124D80199DFE801F015
:1051D000020315211EE0FFF717FE40F23840C2F22D
:1051E0000000007A002807D1FFE740F25440C2F2E5
:1051F000000000210170FFE70CE040F2E400C2F281
:1052000000004168806800900846009900F028FF7F
:1052100000E0FFE702B080BD7047000040F25C3064
:10522000C2F20000006896214163704740F25C3092
:10523000C2F2000000684FF48271416370470000C1
:1052400080B582B0009000980138B0F1807F03D320
:10525000FFE70120019019E0009801384EF2140197
:10526000CEF2000108604FF0FF300F2100F0B2FED7
:105270004EF21800CEF20000002101604EF2100044
:10528000CEF20000072202600191FFE7019802B010
:1052900080BD000080B5FDF729FB80BD80B594B0CE
:1052A00008A83021FBF790F80020079006900590A1
:1052B00004900390FFE70020029043F64000C4F200
:1052C0000200016841F080510160006800F08050E8
:1052D00002900298FFE7FFE70020019047F20000EC
:1052E000C4F200000168022262F38F31016000689D
:1052F00000F4404001900198FFE7012008904FF42E
:105300008030099002200E904FF480010F911921F6
:105310001091A821119112900420139008A8FDF774
:1053200075FD002803D0FFE7FCF742FEFFE70F20E2
:10533000039002200490002105914FF480520692C0
:10534000079103A9009008460099FDF78FFB0028FC
:1053500003D0FFE7FCF72CFEFFE714B080BD000090
:105360004EF68850CEF20000016841F470010160F1
:105370007047000080B540F28420C2F20000FEF7C2
:10538000CBFB80BD80B540F2CC20C2F20000FEF71E
:10539000C3FB80BD80B540F21430C2F20000FEF7BE
:1053A000BBFB80BD80B540F25C30C2F20000FEF76E
:1053B000B3FB80BD83B00290019102980068009019
:1053C00002980021C4F2010188421DD0FFE7029833
:1053D000B0F1804F18D0FFE7029840F20041C4F2CC
:1053E0000001884210D0FFE7029840F60001C4F2A5
:1053F0000001884208D0FFE7029840F60041C4F25D
:10540000000188420AD1FFE7009820F07000009068
:1054100001984068009908430090FFE70298002136
:10542000C4F20101884235D0FFE70298B0F1804F05
:1054300030D0FFE7029840F20041C4F200018842F8
:1054400028D0FFE7029840F60001C4F2000188422C
:1054500020D0FFE7029840F60041C4F200018842E4
:1054600018D0FFE7029844F20001C4F2010188421B
:1054700010D0FFE7029844F20041C4F201018842D3
:1054800008D0FFE7029844F60001C4F20101884207
:105490000AD1FFE7009820F4407000900198C0689E
:1054A000009908430090FFE7009820F080000199E0
:1054B000496908430090019880680299C862019880
:1054C00000680299886202980021C4F201018842B2
:1054D00005D1FFE70198006902990863FFE7029888
:1054E000016841F0040101600298012141610098C6
:1054F0000299086003B0704784B003900291019252
:10550000029800F01F00012101FA00F000900098BD
:1055100003990A6A22EA000008620198029901F0E0
:105520001F01884003990A6A1043086204B070475B
:1055300085B00490039102920193049880680090D2
:10554000009820F47F40009003980299019A41EA64
:10555000022108430099084300900098049988604C
:1055600005B0704783B00290019102988068009066
:10557000009820F07000009001980099084340F0D6
:105580000700009000980299886003B070470000FF
:1055900085B0049003910498006A01900498016A10
:1055A00021F001010162049840680090049880692C
:1055B0000290029820F070000290029820F0030000
:1055C000029003980068029908430290019820F025
:1055D00002000190039880680199084301900498A3
:1055E0000021C4F2010188420ED1FFE7019820F0AA
:1055F000080001900398C068019908430190019840
:1056000020F004000190FFE704980021C4F201019A
:10561000884213D1FFE7009820F480700090009832
:1056200020F40070009003984069009908430090AE
:1056300003988069009908430090FFE70098049957
:105640004860029804998861039840680499486307
:1056500001980499086205B07047000085B0049075
:1056600003910498006A01900498016A21F01001E6
:105670000162049840680090049880690290029842
:1056800020F4E0400290029820F4407002900398C9
:105690000068029941EA00200290019820F0200061
:1056A000019003988068019941EA001001900498E4
:1056B0000021C4F2010188420FD1FFE7019820F0D8
:1056C000800001900398C068019941EA00100190A0
:1056D000019820F040000190FFE704980021C4F2F7
:1056E0000101884215D1FFE7009820F48060009006
:1056F000009820F40060009003984069009941EA06
:105700008000009003988069009941EA8000009031
:10571000FFE700980499486002980499886103980B
:1057200040680499886301980499086205B070473D
:1057300085B0049003910498006A01900498016A6E
:1057400021F4807101620498406800900498C06957
:105750000290029820F070000290029820F003005E
:10576000029003980068029908430290019820F47F
:105770000070019003988068019941EA002001902F
:1057800004980021C4F2010188420FD1FFE701987B
:1057900020F4006001900398C068019941EA00205C
:1057A0000190019820F480600190FFE704980021A7
:1057B000C4F20101884215D1FFE7009820F480501F
:1057C0000090009820F400500090039840690099E0
:1057D00041EA0010009003988069009941EA0010A6
:1057E0000090FFE700980499486002980499C86106
:1057F000039840680499C86301980499086205B049
:105800007047000085B0049003910498006A0190ED
:105810000498016A21F48051016204984068009064
:105820000498C0690290029820F4E0400290029827
:1058300020F44070029003980068029941EA002029
:105840000290019820F4005001900398806801991B
:1058500041EA0030019004980021C4F2010188421D
:105860000BD1FFE7009820F4804000900398406936
:10587000009941EA80100090FFE700980499486081
:1058800002980499C86103984068049908640198D3
:105890000499086205B0704785B0049003910292A4
:1058A0000498006A00900498016A21F001010162E5
:1058B000049880690190019820F0F000019002980E
:1058C000019941EA00100190009820F00A00009030
:1058D0000398009908430090019804998861009802
:1058E0000499086205B0704785B004900391029254
:1058F0000498006A00900498016A21F01001016286
:10590000049880690190019820F4704001900298F9
:10591000019941EA00300190009820F0A000009029
:105920000398009941EA0010009001980499886159
:1059300000980499086205B07047000080B584B0F3
:105940000390002002900398806B019001980068FA
:105950004069C0B2C0090290019890F84100212826
:105960000BD1FFE70298002807D0FFE7019800213C
:10597000C184019800F000F9FFE7019800684069D0
:10598000C0F380100290019890F8420022280BD1B9
:10599000FFE70298002807D0FFE701980021C185A2
:1059A000019800F09FF8FFE70198416C41F0100169
:1059B00041640198FEF772FD04B080BD80B586B0E9
:1059C00005900598806B0490059800680068C005F4
:1059D00000285AD4FFE704980021C185FFE7FFE7BC
:1059E0000498006850E8030F20F480700390FFE7EC
:1059F00003980499096841E80302002AF0D1FFE7FF
:105A0000FFE7FFE7FFE70498006850E8050F20F084
:105A100001000290FFE702980499096841E8050235
:105A2000002AF0D1FFE7FFE7FFE7FFE704980068EF
:105A300050E8050F20F040000190FFE7019804991D
:105A4000096841E80502002AF0D1FFE7FFE7049862
:105A5000202180F842100498006B012814D1FFE740
:105A6000FFE7FFE70498006850E8030F20F01000FC
:105A70000090FFE700980499096841E80302002AB2
:105A8000F0D1FFE7FFE7FFE7FFE70498002141635C
:105A90000498006B012805D1FFE70498818DFEF77B
:105AA000F5FC03E00498FEF75BFEFFE706B080BD5F
:105AB00080B582B001900198806B00900098012120
:105AC00041630098006B012806D1FFE70098818DA3
:105AD0004908FEF7DBFC03E00098FEF791FEFFE7C4
